{
  "contractName": "BBRoyalty",
  "abi": [
    {
      "inputs": [
        {
          "internalType": "string",
          "name": "_contractURI",
          "type": "string"
        }
      ],
      "stateMutability": "nonpayable",
      "type": "constructor"
    },
    {
      "anonymous": false,
      "inputs": [
        {
          "indexed": true,
          "internalType": "address",
          "name": "owner",
          "type": "address"
        },
        {
          "indexed": true,
          "internalType": "address",
          "name": "approved",
          "type": "address"
        },
        {
          "indexed": true,
          "internalType": "uint256",
          "name": "tokenId",
          "type": "uint256"
        }
      ],
      "name": "Approval",
      "type": "event"
    },
    {
      "anonymous": false,
      "inputs": [
        {
          "indexed": true,
          "internalType": "address",
          "name": "owner",
          "type": "address"
        },
        {
          "indexed": true,
          "internalType": "address",
          "name": "operator",
          "type": "address"
        },
        {
          "indexed": false,
          "internalType": "bool",
          "name": "approved",
          "type": "bool"
        }
      ],
      "name": "ApprovalForAll",
      "type": "event"
    },
    {
      "anonymous": false,
      "inputs": [
        {
          "indexed": true,
          "internalType": "address",
          "name": "previousOwner",
          "type": "address"
        },
        {
          "indexed": true,
          "internalType": "address",
          "name": "newOwner",
          "type": "address"
        }
      ],
      "name": "OwnershipTransferred",
      "type": "event"
    },
    {
      "anonymous": false,
      "inputs": [
        {
          "indexed": true,
          "internalType": "address",
          "name": "from",
          "type": "address"
        },
        {
          "indexed": true,
          "internalType": "address",
          "name": "to",
          "type": "address"
        },
        {
          "indexed": true,
          "internalType": "uint256",
          "name": "tokenId",
          "type": "uint256"
        }
      ],
      "name": "Transfer",
      "type": "event"
    },
    {
      "anonymous": false,
      "inputs": [
        {
          "indexed": true,
          "internalType": "address",
          "name": "recipient",
          "type": "address"
        },
        {
          "indexed": false,
          "internalType": "uint256",
          "name": "amount",
          "type": "uint256"
        }
      ],
      "name": "Withdraw",
      "type": "event"
    },
    {
      "inputs": [
        {
          "internalType": "address",
          "name": "to",
          "type": "address"
        },
        {
          "internalType": "uint256",
          "name": "tokenId",
          "type": "uint256"
        }
      ],
      "name": "approve",
      "outputs": [],
      "stateMutability": "nonpayable",
      "type": "function"
    },
    {
      "inputs": [
        {
          "internalType": "address",
          "name": "owner",
          "type": "address"
        }
      ],
      "name": "balanceOf",
      "outputs": [
        {
          "internalType": "uint256",
          "name": "",
          "type": "uint256"
        }
      ],
      "stateMutability": "view",
      "type": "function"
    },
    {
      "inputs": [],
      "name": "contractURIjson",
      "outputs": [
        {
          "internalType": "string",
          "name": "",
          "type": "string"
        }
      ],
      "stateMutability": "view",
      "type": "function"
    },
    {
      "inputs": [
        {
          "internalType": "uint256",
          "name": "tokenId",
          "type": "uint256"
        }
      ],
      "name": "getApproved",
      "outputs": [
        {
          "internalType": "address",
          "name": "",
          "type": "address"
        }
      ],
      "stateMutability": "view",
      "type": "function"
    },
    {
      "inputs": [
        {
          "internalType": "address",
          "name": "owner",
          "type": "address"
        },
        {
          "internalType": "address",
          "name": "operator",
          "type": "address"
        }
      ],
      "name": "isApprovedForAll",
      "outputs": [
        {
          "internalType": "bool",
          "name": "",
          "type": "bool"
        }
      ],
      "stateMutability": "view",
      "type": "function"
    },
    {
      "inputs": [],
      "name": "name",
      "outputs": [
        {
          "internalType": "string",
          "name": "",
          "type": "string"
        }
      ],
      "stateMutability": "view",
      "type": "function"
    },
    {
      "inputs": [],
      "name": "owner",
      "outputs": [
        {
          "internalType": "address",
          "name": "",
          "type": "address"
        }
      ],
      "stateMutability": "view",
      "type": "function"
    },
    {
      "inputs": [
        {
          "internalType": "uint256",
          "name": "tokenId",
          "type": "uint256"
        }
      ],
      "name": "ownerOf",
      "outputs": [
        {
          "internalType": "address",
          "name": "",
          "type": "address"
        }
      ],
      "stateMutability": "view",
      "type": "function"
    },
    {
      "inputs": [],
      "name": "renounceOwnership",
      "outputs": [],
      "stateMutability": "nonpayable",
      "type": "function"
    },
    {
      "inputs": [
        {
          "internalType": "address",
          "name": "from",
          "type": "address"
        },
        {
          "internalType": "address",
          "name": "to",
          "type": "address"
        },
        {
          "internalType": "uint256",
          "name": "tokenId",
          "type": "uint256"
        }
      ],
      "name": "safeTransferFrom",
      "outputs": [],
      "stateMutability": "nonpayable",
      "type": "function"
    },
    {
      "inputs": [
        {
          "internalType": "address",
          "name": "from",
          "type": "address"
        },
        {
          "internalType": "address",
          "name": "to",
          "type": "address"
        },
        {
          "internalType": "uint256",
          "name": "tokenId",
          "type": "uint256"
        },
        {
          "internalType": "bytes",
          "name": "_data",
          "type": "bytes"
        }
      ],
      "name": "safeTransferFrom",
      "outputs": [],
      "stateMutability": "nonpayable",
      "type": "function"
    },
    {
      "inputs": [
        {
          "internalType": "address",
          "name": "operator",
          "type": "address"
        },
        {
          "internalType": "bool",
          "name": "approved",
          "type": "bool"
        }
      ],
      "name": "setApprovalForAll",
      "outputs": [],
      "stateMutability": "nonpayable",
      "type": "function"
    },
    {
      "inputs": [
        {
          "internalType": "bytes4",
          "name": "interfaceId",
          "type": "bytes4"
        }
      ],
      "name": "supportsInterface",
      "outputs": [
        {
          "internalType": "bool",
          "name": "",
          "type": "bool"
        }
      ],
      "stateMutability": "view",
      "type": "function"
    },
    {
      "inputs": [],
      "name": "symbol",
      "outputs": [
        {
          "internalType": "string",
          "name": "",
          "type": "string"
        }
      ],
      "stateMutability": "view",
      "type": "function"
    },
    {
      "inputs": [
        {
          "internalType": "uint256",
          "name": "tokenId",
          "type": "uint256"
        }
      ],
      "name": "tokenURI",
      "outputs": [
        {
          "internalType": "string",
          "name": "",
          "type": "string"
        }
      ],
      "stateMutability": "view",
      "type": "function"
    },
    {
      "inputs": [
        {
          "internalType": "address",
          "name": "from",
          "type": "address"
        },
        {
          "internalType": "address",
          "name": "to",
          "type": "address"
        },
        {
          "internalType": "uint256",
          "name": "tokenId",
          "type": "uint256"
        }
      ],
      "name": "transferFrom",
      "outputs": [],
      "stateMutability": "nonpayable",
      "type": "function"
    },
    {
      "inputs": [
        {
          "internalType": "address",
          "name": "newOwner",
          "type": "address"
        }
      ],
      "name": "transferOwnership",
      "outputs": [],
      "stateMutability": "nonpayable",
      "type": "function"
    },
    {
      "inputs": [],
      "name": "contractURI",
      "outputs": [
        {
          "internalType": "string",
          "name": "",
          "type": "string"
        }
      ],
      "stateMutability": "view",
      "type": "function"
    },
    {
      "inputs": [
        {
          "internalType": "string",
          "name": "_contractURI",
          "type": "string"
        }
      ],
      "name": "setContractURI",
      "outputs": [],
      "stateMutability": "nonpayable",
      "type": "function"
    },
    {
      "inputs": [
        {
          "internalType": "address payable",
          "name": "_recipient",
          "type": "address"
        },
        {
          "internalType": "uint256",
          "name": "_amount",
          "type": "uint256"
        }
      ],
      "name": "withdrawToAddress",
      "outputs": [],
      "stateMutability": "nonpayable",
      "type": "function"
    }
  ],
  "bytecode": "0x60806040523480156200001157600080fd5b5060405162001b7538038062001b758339810160408190526200003491620001cc565b60408051808201825260098152684242526f79616c747960b81b60208083019182528351808501909452600384526221212960e91b908401528151919291620000809160009162000126565b5080516200009690600190602084019062000126565b505050620000b3620000ad620000d060201b60201c565b620000d4565b8051620000c890600790602084019062000126565b5050620002ee565b3390565b600680546001600160a01b038381166001600160a01b0319831681179093556040519116919082907f8be0079c531659141344cd1fd0a4f28419497f9722a3daafe3b4186f6b6457e090600090a35050565b82805462000134906200029b565b90600052602060002090601f016020900481019282620001585760008555620001a3565b82601f106200017357805160ff1916838001178555620001a3565b82800160010185558215620001a3579182015b82811115620001a357825182559160200191906001019062000186565b50620001b1929150620001b5565b5090565b5b80821115620001b15760008155600101620001b6565b60006020808385031215620001df578182fd5b82516001600160401b0380821115620001f6578384fd5b818501915085601f8301126200020a578384fd5b8151818111156200021f576200021f620002d8565b604051601f8201601f1916810185018381118282101715620002455762000245620002d8565b60405281815283820185018810156200025c578586fd5b8592505b818310156200027f578383018501518184018601529184019162000260565b818311156200029057858583830101525b979650505050505050565b600281046001821680620002b057607f821691505b60208210811415620002d257634e487b7160e01b600052602260045260246000fd5b50919050565b634e487b7160e01b600052604160045260246000fd5b61187780620002fe6000396000f3fe608060405234801561001057600080fd5b506004361061012c5760003560e01c8063715018a6116100ad578063b88d4fde11610071578063b88d4fde14610256578063c87b56dd14610269578063e8a3d4851461027c578063e985e9c514610284578063f2fde38b146102975761012c565b8063715018a6146102185780638da5cb5b14610220578063938e3d7b1461022857806395d89b411461023b578063a22cb465146102435761012c565b806335bdac34116100f457806335bdac34146101b75780633aff8ef2146101ca57806342842e0e146101d25780636352211e146101e557806370a08231146101f85761012c565b806301ffc9a71461013157806306fdde031461015a578063081812fc1461016f578063095ea7b31461018f57806323b872dd146101a4575b600080fd5b61014461013f366004611169565b6102aa565b60405161015191906112ae565b60405180910390f35b6101626102f2565b60405161015191906112b9565b61018261017d3660046111e7565b610384565b604051610151919061125d565b6101a261019d366004611157565b6103d0565b005b6101a26101b2366004611069565b610468565b6101a26101c5366004611006565b6104a0565b6101626105ae565b6101a26101e0366004611069565b61063c565b6101826101f33660046111e7565b610657565b61020b610206366004610fea565b61068c565b60405161015191906116f2565b6101a26106d0565b61018261071b565b6101a26102363660046111a1565b61072a565b610162610780565b6101a2610251366004611126565b61078f565b6101a26102643660046110a9565b6107a1565b6101626102773660046111e7565b6107e0565b610162610863565b610144610292366004611031565b610872565b6101a26102a5366004610fea565b6108a0565b60006001600160e01b031982166380ac58cd60e01b14806102db57506001600160e01b03198216635b5e139f60e01b145b806102ea57506102ea82610911565b90505b919050565b6060600080546103019061176a565b80601f016020809104026020016040519081016040528092919081815260200182805461032d9061176a565b801561037a5780601f1061034f5761010080835404028352916020019161037a565b820191906000526020600020905b81548152906001019060200180831161035d57829003601f168201915b5050505050905090565b600061038f8261092a565b6103b45760405162461bcd60e51b81526004016103ab9061151b565b60405180910390fd5b506000908152600460205260409020546001600160a01b031690565b60006103db82610657565b9050806001600160a01b0316836001600160a01b0316141561040f5760405162461bcd60e51b81526004016103ab90611634565b806001600160a01b0316610421610947565b6001600160a01b0316148061043d575061043d81610292610947565b6104595760405162461bcd60e51b81526004016103ab9061142b565b610463838361094b565b505050565b610479610473610947565b826109b9565b6104955760405162461bcd60e51b81526004016103ab906116a1565b610463838383610a3e565b6104a8610947565b6001600160a01b03166104b961071b565b6001600160a01b0316146104df5760405162461bcd60e51b81526004016103ab90611567565b6000198114156104ec5750475b6000826001600160a01b0316826040516105059061125a565b60006040518083038185875af1925050503d8060008114610542576040519150601f19603f3d011682016040523d82523d6000602084013e610547565b606091505b50509050806105685760405162461bcd60e51b81526004016103ab90611675565b826001600160a01b03167f884edad9ce6fa2440d8a54cc123490eb96d2768479d49ff9c7366125a9424364836040516105a191906116f2565b60405180910390a2505050565b600780546105bb9061176a565b80601f01602080910402602001604051908101604052809291908181526020018280546105e79061176a565b80156106345780601f1061060957610100808354040283529160200191610634565b820191906000526020600020905b81548152906001019060200180831161061757829003601f168201915b505050505081565b610463838383604051806020016040528060008152506107a1565b6000818152600260205260408120546001600160a01b0316806102ea5760405162461bcd60e51b81526004016103ab906114d2565b60006001600160a01b0382166106b45760405162461bcd60e51b81526004016103ab90611488565b506001600160a01b031660009081526003602052604090205490565b6106d8610947565b6001600160a01b03166106e961071b565b6001600160a01b03161461070f5760405162461bcd60e51b81526004016103ab90611567565b6107196000610b6b565b565b6006546001600160a01b031690565b610732610947565b6001600160a01b031661074361071b565b6001600160a01b0316146107695760405162461bcd60e51b81526004016103ab90611567565b805161077c906007906020840190610ee1565b5050565b6060600180546103019061176a565b61077c61079a610947565b8383610bbd565b6107b26107ac610947565b836109b9565b6107ce5760405162461bcd60e51b81526004016103ab906116a1565b6107da84848484610c60565b50505050565b60606107eb8261092a565b6108075760405162461bcd60e51b81526004016103ab906115e5565b6000610811610c93565b90506000815111610831576040518060200160405280600081525061085c565b8061083b84610ca5565b60405160200161084c92919061122b565b6040516020818303038152906040525b9392505050565b6060600780546103019061176a565b6001600160a01b03918216600090815260056020908152604080832093909416825291909152205460ff1690565b6108a8610947565b6001600160a01b03166108b961071b565b6001600160a01b0316146108df5760405162461bcd60e51b81526004016103ab90611567565b6001600160a01b0381166109055760405162461bcd60e51b81526004016103ab9061131e565b61090e81610b6b565b50565b6001600160e01b031981166301ffc9a760e01b14919050565b6000908152600260205260409020546001600160a01b0316151590565b3390565b600081815260046020526040902080546001600160a01b0319166001600160a01b038416908117909155819061098082610657565b6001600160a01b03167f8c5be1e5ebec7d5bd14f71427d1e84f3dd0314c0f7b2291e5b200ac8c7c3b92560405160405180910390a45050565b60006109c48261092a565b6109e05760405162461bcd60e51b81526004016103ab906113df565b60006109eb83610657565b9050806001600160a01b0316846001600160a01b03161480610a265750836001600160a01b0316610a1b84610384565b6001600160a01b0316145b80610a365750610a368185610872565b949350505050565b826001600160a01b0316610a5182610657565b6001600160a01b031614610a775760405162461bcd60e51b81526004016103ab9061159c565b6001600160a01b038216610a9d5760405162461bcd60e51b81526004016103ab90611364565b610aa8838383610463565b610ab360008261094b565b6001600160a01b0383166000908152600360205260408120805460019290610adc908490611727565b90915550506001600160a01b0382166000908152600360205260408120805460019290610b0a9084906116fb565b909155505060008181526002602052604080822080546001600160a01b0319166001600160a01b0386811691821790925591518493918716917fddf252ad1be2c89b69c2b068fc378daa952ba7f163c4a11628f55a4df523b3ef91a4505050565b600680546001600160a01b038381166001600160a01b0319831681179093556040519116919082907f8be0079c531659141344cd1fd0a4f28419497f9722a3daafe3b4186f6b6457e090600090a35050565b816001600160a01b0316836001600160a01b03161415610bef5760405162461bcd60e51b81526004016103ab906113a8565b6001600160a01b0383811660008181526005602090815260408083209487168084529490915290819020805460ff1916851515179055517f17307eab39ab6107e8899845ad3d59bd9653f200f220920489ca2b5937696c3190610c539085906112ae565b60405180910390a3505050565b610c6b848484610a3e565b610c7784848484610dc0565b6107da5760405162461bcd60e51b81526004016103ab906112cc565b60408051602081019091526000815290565b606081610cca57506040805180820190915260018152600360fc1b60208201526102ed565b8160005b8115610cf45780610cde816117a5565b9150610ced9050600a83611713565b9150610cce565b60008167ffffffffffffffff811115610d1d57634e487b7160e01b600052604160045260246000fd5b6040519080825280601f01601f191660200182016040528015610d47576020820181803683370190505b5090505b8415610a3657610d5c600183611727565b9150610d69600a866117c0565b610d749060306116fb565b60f81b818381518110610d9757634e487b7160e01b600052603260045260246000fd5b60200101906001600160f81b031916908160001a905350610db9600a86611713565b9450610d4b565b6000610dd4846001600160a01b0316610edb565b15610ed057836001600160a01b031663150b7a02610df0610947565b8786866040518563ffffffff1660e01b8152600401610e129493929190611271565b602060405180830381600087803b158015610e2c57600080fd5b505af1925050508015610e5c575060408051601f3d908101601f19168201909252610e5991810190611185565b60015b610eb6573d808015610e8a576040519150601f19603f3d011682016040523d82523d6000602084013e610e8f565b606091505b508051610eae5760405162461bcd60e51b81526004016103ab906112cc565b805181602001fd5b6001600160e01b031916630a85bd0160e11b149050610a36565b506001949350505050565b3b151590565b828054610eed9061176a565b90600052602060002090601f016020900481019282610f0f5760008555610f55565b82601f10610f2857805160ff1916838001178555610f55565b82800160010185558215610f55579182015b82811115610f55578251825591602001919060010190610f3a565b50610f61929150610f65565b5090565b5b80821115610f615760008155600101610f66565b600067ffffffffffffffff80841115610f9557610f95611800565b604051601f8501601f191681016020018281118282101715610fb957610fb9611800565b604052848152915081838501861015610fd157600080fd5b8484602083013760006020868301015250509392505050565b600060208284031215610ffb578081fd5b813561085c81611816565b60008060408385031215611018578081fd5b823561102381611816565b946020939093013593505050565b60008060408385031215611043578182fd5b823561104e81611816565b9150602083013561105e81611816565b809150509250929050565b60008060006060848603121561107d578081fd5b833561108881611816565b9250602084013561109881611816565b929592945050506040919091013590565b600080600080608085870312156110be578081fd5b84356110c981611816565b935060208501356110d981611816565b925060408501359150606085013567ffffffffffffffff8111156110fb578182fd5b8501601f8101871361110b578182fd5b61111a87823560208401610f7a565b91505092959194509250565b60008060408385031215611138578182fd5b823561114381611816565b91506020830135801515811461105e578182fd5b60008060408385031215611018578182fd5b60006020828403121561117a578081fd5b813561085c8161182b565b600060208284031215611196578081fd5b815161085c8161182b565b6000602082840312156111b2578081fd5b813567ffffffffffffffff8111156111c8578182fd5b8201601f810184136111d8578182fd5b610a3684823560208401610f7a565b6000602082840312156111f8578081fd5b5035919050565b6000815180845261121781602086016020860161173e565b601f01601f19169290920160200192915050565b6000835161123d81846020880161173e565b83519083019061125181836020880161173e565b01949350505050565b90565b6001600160a01b0391909116815260200190565b6001600160a01b03858116825284166020820152604081018390526080606082018190526000906112a4908301846111ff565b9695505050505050565b901515815260200190565b60006020825261085c60208301846111ff565b60208082526032908201527f4552433732313a207472616e7366657220746f206e6f6e20455243373231526560408201527131b2b4bb32b91034b6b83632b6b2b73a32b960711b606082015260800190565b60208082526026908201527f4f776e61626c653a206e6577206f776e657220697320746865207a65726f206160408201526564647265737360d01b606082015260800190565b60208082526024908201527f4552433732313a207472616e7366657220746f20746865207a65726f206164646040820152637265737360e01b606082015260800190565b60208082526019908201527f4552433732313a20617070726f766520746f2063616c6c657200000000000000604082015260600190565b6020808252602c908201527f4552433732313a206f70657261746f7220717565727920666f72206e6f6e657860408201526b34b9ba32b73a103a37b5b2b760a11b606082015260800190565b60208082526038908201527f4552433732313a20617070726f76652063616c6c6572206973206e6f74206f7760408201527f6e6572206e6f7220617070726f76656420666f7220616c6c0000000000000000606082015260800190565b6020808252602a908201527f4552433732313a2062616c616e636520717565727920666f7220746865207a65604082015269726f206164647265737360b01b606082015260800190565b60208082526029908201527f4552433732313a206f776e657220717565727920666f72206e6f6e657869737460408201526832b73a103a37b5b2b760b91b606082015260800190565b6020808252602c908201527f4552433732313a20617070726f76656420717565727920666f72206e6f6e657860408201526b34b9ba32b73a103a37b5b2b760a11b606082015260800190565b6020808252818101527f4f776e61626c653a2063616c6c6572206973206e6f7420746865206f776e6572604082015260600190565b60208082526029908201527f4552433732313a207472616e73666572206f6620746f6b656e2074686174206960408201526839903737ba1037bbb760b91b606082015260800190565b6020808252602f908201527f4552433732314d657461646174613a2055524920717565727920666f72206e6f60408201526e3732bc34b9ba32b73a103a37b5b2b760891b606082015260800190565b60208082526021908201527f4552433732313a20617070726f76616c20746f2063757272656e74206f776e656040820152603960f91b606082015260800190565b602080825260129082015271151c985b9cd858dd1a5bdb8819985a5b195960721b604082015260600190565b60208082526031908201527f4552433732313a207472616e736665722063616c6c6572206973206e6f74206f6040820152701ddb995c881b9bdc88185c1c1c9bdd9959607a1b606082015260800190565b90815260200190565b6000821982111561170e5761170e6117d4565b500190565b600082611722576117226117ea565b500490565b600082821015611739576117396117d4565b500390565b60005b83811015611759578181015183820152602001611741565b838111156107da5750506000910152565b60028104600182168061177e57607f821691505b6020821081141561179f57634e487b7160e01b600052602260045260246000fd5b50919050565b60006000198214156117b9576117b96117d4565b5060010190565b6000826117cf576117cf6117ea565b500690565b634e487b7160e01b600052601160045260246000fd5b634e487b7160e01b600052601260045260246000fd5b634e487b7160e01b600052604160045260246000fd5b6001600160a01b038116811461090e57600080fd5b6001600160e01b03198116811461090e57600080fdfea264697066735822122031e3cc8bb6bdbc0c937827dade39c36f4b00f4e917439b8a61080b389e4fd70c64736f6c63430008000033",
  "immutableReferences": {},
  "source": "// SPDX-License-Identifier: MIT\npragma solidity >=0.7.0 <0.9.0;\n\n\nimport \"@openzeppelin/contracts/token/ERC721/ERC721.sol\";\nimport \"@openzeppelin/contracts/access/Ownable.sol\";\n\ncontract BBRoyalty is ERC721, Ownable {\n    string public contractURIjson; \n\n    event Withdraw(address indexed recipient, uint256 amount);\n\n    constructor(string memory _contractURI) ERC721(\"BBRoyalty\", \"BBR\") {\n       contractURIjson = _contractURI;\n    }\n    \n    function contractURI() public view returns (string memory) {\n        return contractURIjson;\n    }\n\n    function setContractURI(string memory _contractURI) external onlyOwner {\n      contractURIjson = _contractURI;\n    }\n\n    function withdrawToAddress(address payable _recipient, uint256 _amount) external onlyOwner {\n    if (_amount == type(uint256).max) {\n      _amount = address(this).balance;\n    }\n    (bool success, ) = payable(_recipient).call{value: _amount}(\"\");\n    require(success, \"Transaction failed\");\n    emit Withdraw(_recipient, _amount);\n  }\n}",
  "sourcePath": "/Users/louishuang/Documents/Beyound-Boundary/contracts/BBRoyalty.sol",
  "compiler": {
    "name": "solc",
    "version": "0.8.0+commit.c7dfd78e.Emscripten.clang"
  },
  "schemaVersion": "3.4.4",
  "updatedAt": "2022-02-04T20:21:39.927Z",
  "devdoc": {
    "kind": "dev",
    "methods": {
      "approve(address,uint256)": {
        "details": "See {IERC721-approve}."
      },
      "balanceOf(address)": {
        "details": "See {IERC721-balanceOf}."
      },
      "getApproved(uint256)": {
        "details": "See {IERC721-getApproved}."
      },
      "isApprovedForAll(address,address)": {
        "details": "See {IERC721-isApprovedForAll}."
      },
      "name()": {
        "details": "See {IERC721Metadata-name}."
      },
      "owner()": {
        "details": "Returns the address of the current owner."
      },
      "ownerOf(uint256)": {
        "details": "See {IERC721-ownerOf}."
      },
      "renounceOwnership()": {
        "details": "Leaves the contract without owner. It will not be possible to call `onlyOwner` functions anymore. Can only be called by the current owner. NOTE: Renouncing ownership will leave the contract without an owner, thereby removing any functionality that is only available to the owner."
      },
      "safeTransferFrom(address,address,uint256)": {
        "details": "See {IERC721-safeTransferFrom}."
      },
      "safeTransferFrom(address,address,uint256,bytes)": {
        "details": "See {IERC721-safeTransferFrom}."
      },
      "setApprovalForAll(address,bool)": {
        "details": "See {IERC721-setApprovalForAll}."
      },
      "supportsInterface(bytes4)": {
        "details": "See {IERC165-supportsInterface}."
      },
      "symbol()": {
        "details": "See {IERC721Metadata-symbol}."
      },
      "tokenURI(uint256)": {
        "details": "See {IERC721Metadata-tokenURI}."
      },
      "transferFrom(address,address,uint256)": {
        "details": "See {IERC721-transferFrom}."
      },
      "transferOwnership(address)": {
        "details": "Transfers ownership of the contract to a new account (`newOwner`). Can only be called by the current owner."
      }
    },
    "version": 1
  },
  "userdoc": {
    "kind": "user",
    "methods": {},
    "version": 1
  }
}