{
  "contractName": "SmartContract",
  "abi": [
    {
      "inputs": [
        {
          "internalType": "string",
          "name": "_baseTokenURI",
          "type": "string"
        },
        {
          "internalType": "address",
          "name": "_verifier",
          "type": "address"
        }
      ],
      "stateMutability": "nonpayable",
      "type": "constructor"
    },
    {
      "anonymous": false,
      "inputs": [
        {
          "indexed": true,
          "internalType": "address",
          "name": "owner",
          "type": "address"
        },
        {
          "indexed": true,
          "internalType": "address",
          "name": "approved",
          "type": "address"
        },
        {
          "indexed": true,
          "internalType": "uint256",
          "name": "tokenId",
          "type": "uint256"
        }
      ],
      "name": "Approval",
      "type": "event"
    },
    {
      "anonymous": false,
      "inputs": [
        {
          "indexed": true,
          "internalType": "address",
          "name": "owner",
          "type": "address"
        },
        {
          "indexed": true,
          "internalType": "address",
          "name": "operator",
          "type": "address"
        },
        {
          "indexed": false,
          "internalType": "bool",
          "name": "approved",
          "type": "bool"
        }
      ],
      "name": "ApprovalForAll",
      "type": "event"
    },
    {
      "anonymous": false,
      "inputs": [
        {
          "indexed": true,
          "internalType": "address",
          "name": "buyer",
          "type": "address"
        },
        {
          "indexed": false,
          "internalType": "uint256",
          "name": "amount",
          "type": "uint256"
        }
      ],
      "name": "Buy",
      "type": "event"
    },
    {
      "anonymous": false,
      "inputs": [
        {
          "indexed": true,
          "internalType": "address",
          "name": "previousOwner",
          "type": "address"
        },
        {
          "indexed": true,
          "internalType": "address",
          "name": "newOwner",
          "type": "address"
        }
      ],
      "name": "OwnershipTransferred",
      "type": "event"
    },
    {
      "anonymous": false,
      "inputs": [
        {
          "indexed": true,
          "internalType": "address",
          "name": "from",
          "type": "address"
        },
        {
          "indexed": true,
          "internalType": "address",
          "name": "to",
          "type": "address"
        },
        {
          "indexed": true,
          "internalType": "uint256",
          "name": "tokenId",
          "type": "uint256"
        }
      ],
      "name": "Transfer",
      "type": "event"
    },
    {
      "anonymous": false,
      "inputs": [
        {
          "indexed": true,
          "internalType": "address",
          "name": "preVerifier",
          "type": "address"
        },
        {
          "indexed": true,
          "internalType": "address",
          "name": "newVerifier",
          "type": "address"
        }
      ],
      "name": "VerifierSet",
      "type": "event"
    },
    {
      "anonymous": false,
      "inputs": [
        {
          "indexed": true,
          "internalType": "address",
          "name": "recipient",
          "type": "address"
        },
        {
          "indexed": false,
          "internalType": "uint256",
          "name": "amount",
          "type": "uint256"
        }
      ],
      "name": "Withdraw",
      "type": "event"
    },
    {
      "inputs": [
        {
          "internalType": "address",
          "name": "",
          "type": "address"
        }
      ],
      "name": "addressNftBalance",
      "outputs": [
        {
          "internalType": "uint256",
          "name": "",
          "type": "uint256"
        }
      ],
      "stateMutability": "view",
      "type": "function"
    },
    {
      "inputs": [
        {
          "internalType": "address",
          "name": "to",
          "type": "address"
        },
        {
          "internalType": "uint256",
          "name": "tokenId",
          "type": "uint256"
        }
      ],
      "name": "approve",
      "outputs": [],
      "stateMutability": "nonpayable",
      "type": "function"
    },
    {
      "inputs": [
        {
          "internalType": "address",
          "name": "owner",
          "type": "address"
        }
      ],
      "name": "balanceOf",
      "outputs": [
        {
          "internalType": "uint256",
          "name": "",
          "type": "uint256"
        }
      ],
      "stateMutability": "view",
      "type": "function"
    },
    {
      "inputs": [],
      "name": "baseExtension",
      "outputs": [
        {
          "internalType": "string",
          "name": "",
          "type": "string"
        }
      ],
      "stateMutability": "view",
      "type": "function"
    },
    {
      "inputs": [],
      "name": "baseTokenURI",
      "outputs": [
        {
          "internalType": "string",
          "name": "",
          "type": "string"
        }
      ],
      "stateMutability": "view",
      "type": "function"
    },
    {
      "inputs": [
        {
          "internalType": "uint256",
          "name": "tokenId",
          "type": "uint256"
        }
      ],
      "name": "getApproved",
      "outputs": [
        {
          "internalType": "address",
          "name": "",
          "type": "address"
        }
      ],
      "stateMutability": "view",
      "type": "function"
    },
    {
      "inputs": [
        {
          "internalType": "address",
          "name": "owner",
          "type": "address"
        },
        {
          "internalType": "address",
          "name": "operator",
          "type": "address"
        }
      ],
      "name": "isApprovedForAll",
      "outputs": [
        {
          "internalType": "bool",
          "name": "",
          "type": "bool"
        }
      ],
      "stateMutability": "view",
      "type": "function"
    },
    {
      "inputs": [],
      "name": "isSaleActive",
      "outputs": [
        {
          "internalType": "bool",
          "name": "",
          "type": "bool"
        }
      ],
      "stateMutability": "view",
      "type": "function"
    },
    {
      "inputs": [],
      "name": "listingPrice",
      "outputs": [
        {
          "internalType": "uint256",
          "name": "",
          "type": "uint256"
        }
      ],
      "stateMutability": "view",
      "type": "function"
    },
    {
      "inputs": [],
      "name": "maxSupply",
      "outputs": [
        {
          "internalType": "uint256",
          "name": "",
          "type": "uint256"
        }
      ],
      "stateMutability": "view",
      "type": "function"
    },
    {
      "inputs": [],
      "name": "name",
      "outputs": [
        {
          "internalType": "string",
          "name": "",
          "type": "string"
        }
      ],
      "stateMutability": "view",
      "type": "function"
    },
    {
      "inputs": [],
      "name": "nftLimitPerAddress",
      "outputs": [
        {
          "internalType": "uint256",
          "name": "",
          "type": "uint256"
        }
      ],
      "stateMutability": "view",
      "type": "function"
    },
    {
      "inputs": [],
      "name": "owner",
      "outputs": [
        {
          "internalType": "address",
          "name": "",
          "type": "address"
        }
      ],
      "stateMutability": "view",
      "type": "function"
    },
    {
      "inputs": [
        {
          "internalType": "uint256",
          "name": "tokenId",
          "type": "uint256"
        }
      ],
      "name": "ownerOf",
      "outputs": [
        {
          "internalType": "address",
          "name": "",
          "type": "address"
        }
      ],
      "stateMutability": "view",
      "type": "function"
    },
    {
      "inputs": [],
      "name": "renounceOwnership",
      "outputs": [],
      "stateMutability": "nonpayable",
      "type": "function"
    },
    {
      "inputs": [
        {
          "internalType": "address",
          "name": "from",
          "type": "address"
        },
        {
          "internalType": "address",
          "name": "to",
          "type": "address"
        },
        {
          "internalType": "uint256",
          "name": "tokenId",
          "type": "uint256"
        }
      ],
      "name": "safeTransferFrom",
      "outputs": [],
      "stateMutability": "nonpayable",
      "type": "function"
    },
    {
      "inputs": [
        {
          "internalType": "address",
          "name": "from",
          "type": "address"
        },
        {
          "internalType": "address",
          "name": "to",
          "type": "address"
        },
        {
          "internalType": "uint256",
          "name": "tokenId",
          "type": "uint256"
        },
        {
          "internalType": "bytes",
          "name": "_data",
          "type": "bytes"
        }
      ],
      "name": "safeTransferFrom",
      "outputs": [],
      "stateMutability": "nonpayable",
      "type": "function"
    },
    {
      "inputs": [
        {
          "internalType": "address",
          "name": "operator",
          "type": "address"
        },
        {
          "internalType": "bool",
          "name": "approved",
          "type": "bool"
        }
      ],
      "name": "setApprovalForAll",
      "outputs": [],
      "stateMutability": "nonpayable",
      "type": "function"
    },
    {
      "inputs": [
        {
          "internalType": "bytes4",
          "name": "interfaceId",
          "type": "bytes4"
        }
      ],
      "name": "supportsInterface",
      "outputs": [
        {
          "internalType": "bool",
          "name": "",
          "type": "bool"
        }
      ],
      "stateMutability": "view",
      "type": "function"
    },
    {
      "inputs": [],
      "name": "symbol",
      "outputs": [
        {
          "internalType": "string",
          "name": "",
          "type": "string"
        }
      ],
      "stateMutability": "view",
      "type": "function"
    },
    {
      "inputs": [
        {
          "internalType": "address",
          "name": "from",
          "type": "address"
        },
        {
          "internalType": "address",
          "name": "to",
          "type": "address"
        },
        {
          "internalType": "uint256",
          "name": "tokenId",
          "type": "uint256"
        }
      ],
      "name": "transferFrom",
      "outputs": [],
      "stateMutability": "nonpayable",
      "type": "function"
    },
    {
      "inputs": [
        {
          "internalType": "address",
          "name": "newOwner",
          "type": "address"
        }
      ],
      "name": "transferOwnership",
      "outputs": [],
      "stateMutability": "nonpayable",
      "type": "function"
    },
    {
      "inputs": [],
      "name": "verifier",
      "outputs": [
        {
          "internalType": "address",
          "name": "",
          "type": "address"
        }
      ],
      "stateMutability": "view",
      "type": "function"
    },
    {
      "inputs": [],
      "name": "getTotalSupply",
      "outputs": [
        {
          "internalType": "uint256",
          "name": "",
          "type": "uint256"
        }
      ],
      "stateMutability": "view",
      "type": "function"
    },
    {
      "inputs": [
        {
          "internalType": "address",
          "name": "recipient",
          "type": "address"
        }
      ],
      "name": "mint",
      "outputs": [
        {
          "internalType": "uint256",
          "name": "",
          "type": "uint256"
        }
      ],
      "stateMutability": "payable",
      "type": "function"
    },
    {
      "inputs": [
        {
          "internalType": "string",
          "name": "_newBaseURI",
          "type": "string"
        }
      ],
      "name": "setBaseURI",
      "outputs": [],
      "stateMutability": "nonpayable",
      "type": "function"
    },
    {
      "inputs": [
        {
          "internalType": "uint256",
          "name": "_tokenId",
          "type": "uint256"
        }
      ],
      "name": "tokenURI",
      "outputs": [
        {
          "internalType": "string",
          "name": "",
          "type": "string"
        }
      ],
      "stateMutability": "view",
      "type": "function"
    },
    {
      "inputs": [
        {
          "internalType": "string",
          "name": "_newBaseExtension",
          "type": "string"
        }
      ],
      "name": "setBaseExtension",
      "outputs": [],
      "stateMutability": "nonpayable",
      "type": "function"
    },
    {
      "inputs": [
        {
          "internalType": "bool",
          "name": "_isSaleActive",
          "type": "bool"
        }
      ],
      "name": "setIsSaleActive",
      "outputs": [],
      "stateMutability": "nonpayable",
      "type": "function"
    },
    {
      "inputs": [
        {
          "internalType": "address payable",
          "name": "_recipient",
          "type": "address"
        },
        {
          "internalType": "uint256",
          "name": "_amount",
          "type": "uint256"
        }
      ],
      "name": "withdrawToAddress",
      "outputs": [],
      "stateMutability": "nonpayable",
      "type": "function"
    },
    {
      "inputs": [],
      "name": "distributeRoyalty",
      "outputs": [],
      "stateMutability": "nonpayable",
      "type": "function"
    },
    {
      "inputs": [
        {
          "internalType": "address",
          "name": "_newVerifier",
          "type": "address"
        }
      ],
      "name": "setVerifier",
      "outputs": [],
      "stateMutability": "nonpayable",
      "type": "function"
    },
    {
      "inputs": [],
      "name": "getWhitelistConstant",
      "outputs": [
        {
          "internalType": "bytes32",
          "name": "",
          "type": "bytes32"
        }
      ],
      "stateMutability": "pure",
      "type": "function"
    }
  ],
  "bytecode": "0x6009805460ff1916905560c06040526005608081905264173539b7b760d91b60a09081526200003291600a9190620001be565b50662386f26fc10000600c556103e8600d556003600e553480156200005657600080fd5b506040516200285c3803806200285c833981016040819052620000799162000281565b604080518082018252600e81526d14db585c9d0810dbdb9d1c9858dd60921b602080830191825283518085019094526002845261534360f01b908401528151919291620000c991600091620001be565b508051620000df906001906020840190620001be565b505050620000fc620000f66200016860201b60201c565b6200016c565b600160075581516200011690600b906020850190620001be565b50600f80546001600160a01b0319166001600160a01b0383169081179091556040516000907fab81081e8fd2866d32d2dd90fdfa53fa9e0aa3d7eed73c684b6dcc4e2c0369fd908290a35050620003b8565b3390565b600680546001600160a01b038381166001600160a01b0319831681179093556040519116919082907f8be0079c531659141344cd1fd0a4f28419497f9722a3daafe3b4186f6b6457e090600090a35050565b828054620001cc9062000365565b90600052602060002090601f016020900481019282620001f057600085556200023b565b82601f106200020b57805160ff19168380011785556200023b565b828001600101855582156200023b579182015b828111156200023b5782518255916020019190600101906200021e565b50620002499291506200024d565b5090565b5b808211156200024957600081556001016200024e565b80516001600160a01b03811681146200027c57600080fd5b919050565b6000806040838503121562000294578182fd5b82516001600160401b0380821115620002ab578384fd5b818501915085601f830112620002bf578384fd5b815181811115620002d457620002d4620003a2565b6040516020601f8301601f1916820181018481118382101715620002fc57620002fc620003a2565b604052828252848301810189101562000313578687fd5b8693505b8284101562000336578484018101518285018201529283019262000317565b828411156200034757868184840101525b8196506200035781890162000264565b955050505050509250929050565b6002810460018216806200037a57607f821691505b602082108114156200039c57634e487b7160e01b600052602260045260246000fd5b50919050565b634e487b7160e01b600052604160045260246000fd5b61249480620003c86000396000f3fe6080604052600436106101ee5760003560e01c8063715018a61161010d578063c6682862116100a0578063d547cfb71161006f578063d547cfb714610521578063d5abeb0114610536578063da3ef23f1461054b578063e985e9c51461056b578063f2fde38b1461058b576101ee565b8063c6682862146104b7578063c78f19f9146104cc578063c87b56dd146104e1578063d2d65ff514610501576101ee565b8063a22cb465116100dc578063a22cb46514610442578063a9ef2a4014610462578063b88d4fde14610482578063c4e41b22146104a2576101ee565b8063715018a6146103ee578063868accc8146104035780638da5cb5b1461041857806395d89b411461042d576101ee565b806342842e0e11610185578063564566a811610154578063564566a8146103865780636352211e1461039b5780636a627842146103bb57806370a08231146103ce576101ee565b806342842e0e1461031157806347c0309b146103315780635437988d1461034657806355f804b314610366576101ee565b806323b872dd116101c157806323b872dd1461029a5780632b7ac3f3146102ba5780632e302fb4146102cf57806335bdac34146102f1576101ee565b806301ffc9a7146101f357806306fdde0314610229578063081812fc1461024b578063095ea7b314610278575b600080fd5b3480156101ff57600080fd5b5061021361020e366004611acd565b6105ab565b6040516102209190611ca5565b60405180910390f35b34801561023557600080fd5b5061023e6105f3565b6040516102209190611cb9565b34801561025757600080fd5b5061026b610266366004611b4b565b610685565b6040516102209190611c54565b34801561028457600080fd5b50610298610293366004611aa1565b6106d1565b005b3480156102a657600080fd5b506102986102b53660046119b0565b610769565b3480156102c657600080fd5b5061026b6107a1565b3480156102db57600080fd5b506102e46107b0565b6040516102209190611cb0565b3480156102fd57600080fd5b5061029861030c36600461194d565b6107d4565b34801561031d57600080fd5b5061029861032c3660046119b0565b6108e2565b34801561033d57600080fd5b506102986108fd565b34801561035257600080fd5b50610298610361366004611931565b610ac4565b34801561037257600080fd5b50610298610381366004611b05565b610b5f565b34801561039257600080fd5b50610213610bb5565b3480156103a757600080fd5b5061026b6103b6366004611b4b565b610bbe565b6102e46103c9366004611931565b610bf3565b3480156103da57600080fd5b506102e46103e9366004611931565b610d7b565b3480156103fa57600080fd5b50610298610dbf565b34801561040f57600080fd5b506102e4610e0a565b34801561042457600080fd5b5061026b610e10565b34801561043957600080fd5b5061023e610e1f565b34801561044e57600080fd5b5061029861045d366004611a6d565b610e2e565b34801561046e57600080fd5b506102e461047d366004611931565b610e40565b34801561048e57600080fd5b5061029861049d3660046119f0565b610e52565b3480156104ae57600080fd5b506102e4610e91565b3480156104c357600080fd5b5061023e610ea2565b3480156104d857600080fd5b506102e4610f30565b3480156104ed57600080fd5b5061023e6104fc366004611b4b565b610f36565b34801561050d57600080fd5b5061029861051c366004611ab3565b610fbc565b34801561052d57600080fd5b5061023e61100e565b34801561054257600080fd5b506102e461101b565b34801561055757600080fd5b50610298610566366004611b05565b611021565b34801561057757600080fd5b50610213610586366004611978565b611073565b34801561059757600080fd5b506102986105a6366004611931565b6110a1565b60006001600160e01b031982166380ac58cd60e01b14806105dc57506001600160e01b03198216635b5e139f60e01b145b806105eb57506105eb82611112565b90505b919050565b60606000805461060290612387565b80601f016020809104026020016040519081016040528092919081815260200182805461062e90612387565b801561067b5780601f106106505761010080835404028352916020019161067b565b820191906000526020600020905b81548152906001019060200180831161065e57829003601f168201915b5050505050905090565b60006106908261112b565b6106b55760405162461bcd60e51b81526004016106ac9061212e565b60405180910390fd5b506000908152600460205260409020546001600160a01b031690565b60006106dc82610bbe565b9050806001600160a01b0316836001600160a01b031614156107105760405162461bcd60e51b81526004016106ac906121f8565b806001600160a01b0316610722611148565b6001600160a01b0316148061073e575061073e81610586611148565b61075a5760405162461bcd60e51b81526004016106ac90611f59565b610764838361114c565b505050565b61077a610774611148565b826111ba565b6107965760405162461bcd60e51b81526004016106ac90612265565b61076483838361123f565b600f546001600160a01b031681565b7f9ab6299e562ce2a1eece2b7dc9f6af11cf4064bfb33bbc3ef71035f1ad89af5890565b6107dc611148565b6001600160a01b03166107ed610e10565b6001600160a01b0316146108135760405162461bcd60e51b81526004016106ac9061217a565b6000198114156108205750475b6000826001600160a01b03168260405161083990611c51565b60006040518083038185875af1925050503d8060008114610876576040519150601f19603f3d011682016040523d82523d6000602084013e61087b565b606091505b505090508061089c5760405162461bcd60e51b81526004016106ac90612239565b826001600160a01b03167f884edad9ce6fa2440d8a54cc123490eb96d2768479d49ff9c7366125a9424364836040516108d59190611cb0565b60405180910390a2505050565b61076483838360405180602001604052806000815250610e52565b610905611148565b6001600160a01b0316610916610e10565b6001600160a01b03161461093c5760405162461bcd60e51b81526004016106ac9061217a565b60095460ff1615156001146109635760405162461bcd60e51b81526004016106ac90611e90565b476000610971600b83612311565b61097c906064612325565b9050600061098b600a83612311565b9050600061099a606484612311565b905060007317db184cfa90bd2ea9da3a273b902eae983783506001600160a01b0316826040516109c990611c51565b60006040518083038185875af1925050503d8060008114610a06576040519150601f19603f3d011682016040523d82523d6000602084013e610a0b565b606091505b5050905080610a2c5760405162461bcd60e51b81526004016106ac90611fb6565b60007317db184cfa90bd2ea9da3a273b902eae983783506001600160a01b031684604051610a5990611c51565b60006040518083038185875af1925050503d8060008114610a96576040519150601f19603f3d011682016040523d82523d6000602084013e610a9b565b606091505b5050905080610abc5760405162461bcd60e51b81526004016106ac90611f13565b505050505050565b610acc611148565b6001600160a01b0316610add610e10565b6001600160a01b031614610b035760405162461bcd60e51b81526004016106ac9061217a565b600f546040516001600160a01b038084169216907fab81081e8fd2866d32d2dd90fdfa53fa9e0aa3d7eed73c684b6dcc4e2c0369fd90600090a3600f80546001600160a01b0319166001600160a01b0392909216919091179055565b610b67611148565b6001600160a01b0316610b78610e10565b6001600160a01b031614610b9e5760405162461bcd60e51b81526004016106ac9061217a565b8051610bb190600b906020840190611818565b5050565b60095460ff1681565b6000818152600260205260408120546001600160a01b0316806105eb5760405162461bcd60e51b81526004016106ac90612079565b600060026007541415610c185760405162461bcd60e51b81526004016106ac906122b6565b600260075560095460ff1615610c405760405162461bcd60e51b81526004016106ac90611ccc565b600c54341015610c625760405162461bcd60e51b81526004016106ac90611deb565b600d54610c6f600861136c565b10610c8c5760405162461bcd60e51b81526004016106ac90611d4c565b600e546001600160a01b0383166000908152601060205260409020541115610cc65760405162461bcd60e51b81526004016106ac906120f7565b610cd06008611370565b6000610cdc600861136c565b9050610ce88382611379565b6001600160a01b0383166000908152601060205260408120805491610d0c836123c2565b9091555050600c546001600160a01b03841660008181526010602052604090205490917fe3d4187f6ca4248660cc0ac8b8056515bac4a8132be2eca31d6d0cc170722a7e91610d5b9190612325565b604051610d689190611cb0565b60405180910390a2600160075592915050565b60006001600160a01b038216610da35760405162461bcd60e51b81526004016106ac9061202f565b506001600160a01b031660009081526003602052604090205490565b610dc7611148565b6001600160a01b0316610dd8610e10565b6001600160a01b031614610dfe5760405162461bcd60e51b81526004016106ac9061217a565b610e086000611393565b565b600e5481565b6006546001600160a01b031690565b60606001805461060290612387565b610bb1610e39611148565b83836113e5565b60106020526000908152604090205481565b610e63610e5d611148565b836111ba565b610e7f5760405162461bcd60e51b81526004016106ac90612265565b610e8b84848484611488565b50505050565b6000610e9d600861136c565b905090565b600a8054610eaf90612387565b80601f0160208091040260200160405190810160405280929190818152602001828054610edb90612387565b8015610f285780601f10610efd57610100808354040283529160200191610f28565b820191906000526020600020905b815481529060010190602001808311610f0b57829003601f168201915b505050505081565b600c5481565b6060610f418261112b565b610f5d5760405162461bcd60e51b81526004016106ac90611feb565b6000610f676114bb565b90506000815111610f875760405180602001604052806000815250610fb5565b80610f91846114ca565b600a604051602001610fa593929190611b8f565b6040516020818303038152906040525b9392505050565b610fc4611148565b6001600160a01b0316610fd5610e10565b6001600160a01b031614610ffb5760405162461bcd60e51b81526004016106ac9061217a565b6009805460ff1916911515919091179055565b600b8054610eaf90612387565b600d5481565b611029611148565b6001600160a01b031661103a610e10565b6001600160a01b0316146110605760405162461bcd60e51b81526004016106ac9061217a565b8051610bb190600a906020840190611818565b6001600160a01b03918216600090815260056020908152604080832093909416825291909152205460ff1690565b6110a9611148565b6001600160a01b03166110ba610e10565b6001600160a01b0316146110e05760405162461bcd60e51b81526004016106ac9061217a565b6001600160a01b0381166111065760405162461bcd60e51b81526004016106ac90611d6e565b61110f81611393565b50565b6001600160e01b031981166301ffc9a760e01b14919050565b6000908152600260205260409020546001600160a01b0316151590565b3390565b600081815260046020526040902080546001600160a01b0319166001600160a01b038416908117909155819061118182610bbe565b6001600160a01b03167f8c5be1e5ebec7d5bd14f71427d1e84f3dd0314c0f7b2291e5b200ac8c7c3b92560405160405180910390a45050565b60006111c58261112b565b6111e15760405162461bcd60e51b81526004016106ac90611ec7565b60006111ec83610bbe565b9050806001600160a01b0316846001600160a01b031614806112275750836001600160a01b031661121c84610685565b6001600160a01b0316145b8061123757506112378185611073565b949350505050565b826001600160a01b031661125282610bbe565b6001600160a01b0316146112785760405162461bcd60e51b81526004016106ac906121af565b6001600160a01b03821661129e5760405162461bcd60e51b81526004016106ac90611e15565b6112a9838383610764565b6112b460008261114c565b6001600160a01b03831660009081526003602052604081208054600192906112dd908490612344565b90915550506001600160a01b038216600090815260036020526040812080546001929061130b9084906122f9565b909155505060008181526002602052604080822080546001600160a01b0319166001600160a01b0386811691821790925591518493918716917fddf252ad1be2c89b69c2b068fc378daa952ba7f163c4a11628f55a4df523b3ef91a4505050565b5490565b80546001019055565b610bb18282604051806020016040528060008152506115e5565b600680546001600160a01b038381166001600160a01b0319831681179093556040519116919082907f8be0079c531659141344cd1fd0a4f28419497f9722a3daafe3b4186f6b6457e090600090a35050565b816001600160a01b0316836001600160a01b031614156114175760405162461bcd60e51b81526004016106ac90611e59565b6001600160a01b0383811660008181526005602090815260408083209487168084529490915290819020805460ff1916851515179055517f17307eab39ab6107e8899845ad3d59bd9653f200f220920489ca2b5937696c319061147b908590611ca5565b60405180910390a3505050565b61149384848461123f565b61149f84848484611618565b610e8b5760405162461bcd60e51b81526004016106ac90611cfa565b6060600b805461060290612387565b6060816114ef57506040805180820190915260018152600360fc1b60208201526105ee565b8160005b81156115195780611503816123c2565b91506115129050600a83612311565b91506114f3565b60008167ffffffffffffffff81111561154257634e487b7160e01b600052604160045260246000fd5b6040519080825280601f01601f19166020018201604052801561156c576020820181803683370190505b5090505b841561123757611581600183612344565b915061158e600a866123dd565b6115999060306122f9565b60f81b8183815181106115bc57634e487b7160e01b600052603260045260246000fd5b60200101906001600160f81b031916908160001a9053506115de600a86612311565b9450611570565b6115ef8383611733565b6115fc6000848484611618565b6107645760405162461bcd60e51b81526004016106ac90611cfa565b600061162c846001600160a01b0316611812565b1561172857836001600160a01b031663150b7a02611648611148565b8786866040518563ffffffff1660e01b815260040161166a9493929190611c68565b602060405180830381600087803b15801561168457600080fd5b505af19250505080156116b4575060408051601f3d908101601f191682019092526116b191810190611ae9565b60015b61170e573d8080156116e2576040519150601f19603f3d011682016040523d82523d6000602084013e6116e7565b606091505b5080516117065760405162461bcd60e51b81526004016106ac90611cfa565b805181602001fd5b6001600160e01b031916630a85bd0160e11b149050611237565b506001949350505050565b6001600160a01b0382166117595760405162461bcd60e51b81526004016106ac906120c2565b6117628161112b565b1561177f5760405162461bcd60e51b81526004016106ac90611db4565b61178b60008383610764565b6001600160a01b03821660009081526003602052604081208054600192906117b49084906122f9565b909155505060008181526002602052604080822080546001600160a01b0319166001600160a01b03861690811790915590518392907fddf252ad1be2c89b69c2b068fc378daa952ba7f163c4a11628f55a4df523b3ef908290a45050565b3b151590565b82805461182490612387565b90600052602060002090601f016020900481019282611846576000855561188c565b82601f1061185f57805160ff191683800117855561188c565b8280016001018555821561188c579182015b8281111561188c578251825591602001919060010190611871565b5061189892915061189c565b5090565b5b80821115611898576000815560010161189d565b600067ffffffffffffffff808411156118cc576118cc61241d565b604051601f8501601f1916810160200182811182821017156118f0576118f061241d565b60405284815291508183850186101561190857600080fd5b8484602083013760006020868301015250509392505050565b803580151581146105ee57600080fd5b600060208284031215611942578081fd5b8135610fb581612433565b6000806040838503121561195f578081fd5b823561196a81612433565b946020939093013593505050565b6000806040838503121561198a578182fd5b823561199581612433565b915060208301356119a581612433565b809150509250929050565b6000806000606084860312156119c4578081fd5b83356119cf81612433565b925060208401356119df81612433565b929592945050506040919091013590565b60008060008060808587031215611a05578081fd5b8435611a1081612433565b93506020850135611a2081612433565b925060408501359150606085013567ffffffffffffffff811115611a42578182fd5b8501601f81018713611a52578182fd5b611a61878235602084016118b1565b91505092959194509250565b60008060408385031215611a7f578182fd5b8235611a8a81612433565b9150611a9860208401611921565b90509250929050565b6000806040838503121561195f578182fd5b600060208284031215611ac4578081fd5b610fb582611921565b600060208284031215611ade578081fd5b8135610fb581612448565b600060208284031215611afa578081fd5b8151610fb581612448565b600060208284031215611b16578081fd5b813567ffffffffffffffff811115611b2c578182fd5b8201601f81018413611b3c578182fd5b611237848235602084016118b1565b600060208284031215611b5c578081fd5b5035919050565b60008151808452611b7b81602086016020860161235b565b601f01601f19169290920160200192915050565b600084516020611ba28285838a0161235b565b855191840191611bb58184848a0161235b565b8554920191839060028104600180831680611bd157607f831692505b858310811415611bef57634e487b7160e01b88526022600452602488fd5b808015611c035760018114611c1457611c40565b60ff19851688528388019550611c40565b611c1d8b6122ed565b895b85811015611c385781548a820152908401908801611c1f565b505083880195505b50939b9a5050505050505050505050565b90565b6001600160a01b0391909116815260200190565b6001600160a01b0385811682528416602082015260408101839052608060608201819052600090611c9b90830184611b63565b9695505050505050565b901515815260200190565b90815260200190565b600060208252610fb56020830184611b63565b60208082526014908201527314d85b19481a185cc81899595b881c185d5cd95960621b604082015260600190565b60208082526032908201527f4552433732313a207472616e7366657220746f206e6f6e20455243373231526560408201527131b2b4bb32b91034b6b83632b6b2b73a32b960711b606082015260800190565b60208082526008908201526714dbdb190813dd5d60c21b604082015260600190565b60208082526026908201527f4f776e61626c653a206e6577206f776e657220697320746865207a65726f206160408201526564647265737360d01b606082015260800190565b6020808252601c908201527f4552433732313a20746f6b656e20616c7265616479206d696e74656400000000604082015260600190565b60208082526010908201526f4e6f7420656e6f7567682066756e647360801b604082015260600190565b60208082526024908201527f4552433732313a207472616e7366657220746f20746865207a65726f206164646040820152637265737360e01b606082015260800190565b60208082526019908201527f4552433732313a20617070726f766520746f2063616c6c657200000000000000604082015260600190565b60208082526018908201527f53616c65206973206e6f206c6f6e676572206163746976650000000000000000604082015260600190565b6020808252602c908201527f4552433732313a206f70657261746f7220717565727920666f72206e6f6e657860408201526b34b9ba32b73a103a37b5b2b760a11b606082015260800190565b60208082526026908201527f4172742043726561746f7220526f79616c7479205472616e73616374696f6e2060408201526519985a5b195960d21b606082015260800190565b60208082526038908201527f4552433732313a20617070726f76652063616c6c6572206973206e6f74206f7760408201527f6e6572206e6f7220617070726f76656420666f7220616c6c0000000000000000606082015260800190565b6020808252818101527f4f776e657220526f79616c7479205472616e73616374696f6e206661696c6564604082015260600190565b60208082526024908201527f4e46543a2055524920717565727920666f72206e6f6e6578697374656e74207460408201526337b5b2b760e11b606082015260800190565b6020808252602a908201527f4552433732313a2062616c616e636520717565727920666f7220746865207a65604082015269726f206164647265737360b01b606082015260800190565b60208082526029908201527f4552433732313a206f776e657220717565727920666f72206e6f6e657869737460408201526832b73a103a37b5b2b760b91b606082015260800190565b6020808252818101527f4552433732313a206d696e7420746f20746865207a65726f2061646472657373604082015260600190565b6020808252601b908201527f4d6178204e465420706572206164647265737320726561636865640000000000604082015260600190565b6020808252602c908201527f4552433732313a20617070726f76656420717565727920666f72206e6f6e657860408201526b34b9ba32b73a103a37b5b2b760a11b606082015260800190565b6020808252818101527f4f776e61626c653a2063616c6c6572206973206e6f7420746865206f776e6572604082015260600190565b60208082526029908201527f4552433732313a207472616e73666572206f6620746f6b656e2074686174206960408201526839903737ba1037bbb760b91b606082015260800190565b60208082526021908201527f4552433732313a20617070726f76616c20746f2063757272656e74206f776e656040820152603960f91b606082015260800190565b602080825260129082015271151c985b9cd858dd1a5bdb8819985a5b195960721b604082015260600190565b60208082526031908201527f4552433732313a207472616e736665722063616c6c6572206973206e6f74206f6040820152701ddb995c881b9bdc88185c1c1c9bdd9959607a1b606082015260800190565b6020808252601f908201527f5265656e7472616e637947756172643a207265656e7472616e742063616c6c00604082015260600190565b60009081526020902090565b6000821982111561230c5761230c6123f1565b500190565b60008261232057612320612407565b500490565b600081600019048311821515161561233f5761233f6123f1565b500290565b600082821015612356576123566123f1565b500390565b60005b8381101561237657818101518382015260200161235e565b83811115610e8b5750506000910152565b60028104600182168061239b57607f821691505b602082108114156123bc57634e487b7160e01b600052602260045260246000fd5b50919050565b60006000198214156123d6576123d66123f1565b5060010190565b6000826123ec576123ec612407565b500690565b634e487b7160e01b600052601160045260246000fd5b634e487b7160e01b600052601260045260246000fd5b634e487b7160e01b600052604160045260246000fd5b6001600160a01b038116811461110f57600080fd5b6001600160e01b03198116811461110f57600080fdfea26469706673582212208ebb815fa7b64344d05a9a3f80da0b05e0e33dc6b71c4a74f316d743ab99445b64736f6c63430008000033",
  "immutableReferences": {},
  "source": "// SPDX-License-Identifier: MIT\npragma solidity >=0.7.0 <0.9.0;\n\nimport \"@openzeppelin/contracts/token/ERC721/ERC721.sol\";\nimport \"@openzeppelin/contracts/access/Ownable.sol\";\nimport \"@openzeppelin/contracts/security/ReentrancyGuard.sol\";\nimport \"@openzeppelin/contracts/utils/Counters.sol\";\nimport \"@openzeppelin/contracts/utils/cryptography/SignatureChecker.sol\";\nimport \"@openzeppelin/contracts/utils/cryptography/ECDSA.sol\";\nimport \"@openzeppelin/contracts/utils/Strings.sol\";\n\ncontract SmartContract is ERC721, Ownable, ReentrancyGuard {\n  using Strings for uint256;\n  using Counters for Counters.Counter;\n  using ECDSA for bytes32;\n  using SignatureChecker for address;\n\n  event Buy(address indexed buyer, uint256 amount);\n  event VerifierSet(address indexed preVerifier, address indexed newVerifier);\n  event Withdraw(address indexed recipient, uint256 amount);\n\n  Counters.Counter private tokenId;\n\n  bool public isSaleActive = false;\n\n  string public baseExtension = \".json\";\n  string public baseTokenURI;\n\n  uint256 public listingPrice = 0.01 ether;\n  uint256 public maxSupply = 1000;\n  uint256 public nftLimitPerAddress = 3;\n\n  address public verifier;\n\n  mapping(address => uint256) public addressNftBalance;\n\n  // domain separators\n  // keccak256(\"bb-nfts.access.is-whitelisted(address)\")\n  bytes32 internal constant DS_IS_WHITELISTED = 0x9ab6299e562ce2a1eece2b7dc9f6af11cf4064bfb33bbc3ef71035f1ad89af58;\n\n  constructor(\n    string memory _baseTokenURI,\n    address _verifier\n    ) \n    // Remember to change contract name here\n    ERC721(\"Smart Contract\", \"SC\") \n    Ownable()\n    ReentrancyGuard()\n    {\n     baseTokenURI = _baseTokenURI; \n     verifier = _verifier;\n     emit VerifierSet(address(0), _verifier);\n  }\n\n  function getTotalSupply() public view returns (uint256) {\n    return tokenId.current();\n  }\n\n  function mint(address recipient) external payable nonReentrant returns (uint256) {\n    require(isSaleActive == false, \"Sale has been paused\");\n    // _verifyWhitelist(recipient, _whitelistedSig);\n    require(msg.value >= listingPrice, \"Not enough funds\");\n    require(tokenId.current() < maxSupply, \"Sold Out\");\n    require(addressNftBalance[recipient] <= nftLimitPerAddress, \"Max NFT per address reached\");\n\n    tokenId.increment();\n    uint256 newId = tokenId.current();\n    _safeMint(recipient, newId);\n    addressNftBalance[recipient]++;\n    emit Buy(recipient, addressNftBalance[recipient] * listingPrice);\n\n    return newId;\n  }\n\n  function setBaseURI(string memory _newBaseURI) external onlyOwner {\n    baseTokenURI = _newBaseURI;\n  }\n\n  function _baseURI() internal view virtual override returns (string memory) {\n    return baseTokenURI;\n  }\n\n  function tokenURI(uint256 _tokenId)\n    public\n    view\n    virtual\n    override\n    returns (string memory)\n  {\n    require(\n      _exists(_tokenId),\n      \"NFT: URI query for nonexistent token\"\n    );\n\n    string memory currentBaseURI = _baseURI();\n    return bytes(currentBaseURI).length > 0\n        ? string(abi.encodePacked(currentBaseURI, _tokenId.toString(), baseExtension))\n        : \"\";\n  }\n\n  function setBaseExtension(string memory _newBaseExtension) external onlyOwner {\n    baseExtension = _newBaseExtension;\n  }\n\n  function setIsSaleActive(bool _isSaleActive) external onlyOwner {\n    isSaleActive = _isSaleActive;\n  }\n\n  function withdrawToAddress(address payable _recipient, uint256 _amount) external onlyOwner {\n    if (_amount == type(uint256).max) {\n      _amount = address(this).balance;\n    }\n    (bool success, ) = payable(_recipient).call{value: _amount}(\"\");\n    require(success, \"Transaction failed\");\n    emit Withdraw(_recipient, _amount);\n  }\n\n  function distributeRoyalty() public onlyOwner {\n    require(isSaleActive == true, \"Sale is no longer active\");\n    uint256 royalty = address(this).balance;\n    // 11% royalty fee\n    uint256 totalSaleProfit = royalty / 11 * 100;\n    // 10%\n    uint256 clientRoyalty = totalSaleProfit / 10;\n    // 1%\n    uint256 ownerRoyalty = totalSaleProfit / 100;\n\n    // royalty for code owner\n    (bool ownerSuccess, ) = payable(0x17dB184CfA90bD2EA9DA3a273B902EaE98378350).call{value: ownerRoyalty}(\"\");\n    require(ownerSuccess, \"Owner Royalty Transaction failed\");\n\n    // royalty for art creator\n    (bool success, ) = payable(0x17dB184CfA90bD2EA9DA3a273B902EaE98378350).call{value: clientRoyalty}(\"\");\n    require(success, \"Art Creator Royalty Transaction failed\");\n  }\n\n// Whitelist\n  function setVerifier(address _newVerifier) external onlyOwner {\n    emit VerifierSet(verifier, _newVerifier);\n    verifier = _newVerifier;\n  }\n\n  function getWhitelistConstant() external pure returns (bytes32) {\n    return DS_IS_WHITELISTED;\n  }\n\n  function _verifyWhitelist(address _account, bytes memory _whitelistedSig)\n        internal view\n    {\n        require(\n            _verifySignature(DS_IS_WHITELISTED, _account, _whitelistedSig),\n            \"Address is not whitelisted\"\n        );\n    }\n\n  function _verifySignature(bytes32 _domainSep, address _account, bytes memory _signature)\n        internal view returns (bool)\n    {\n        return verifier.isValidSignatureNow(\n            keccak256(abi.encode(_domainSep, _account)).toEthSignedMessageHash(),\n            _signature\n        );\n    }\n}\n",
  "sourcePath": "/Users/louishuang/Documents/Beyound-Boundary/contracts/SmartContract.sol",
  "compiler": {
    "name": "solc",
    "version": "0.8.0+commit.c7dfd78e.Emscripten.clang"
  },
  "schemaVersion": "3.4.4",
  "updatedAt": "2022-02-04T20:21:39.933Z",
  "devdoc": {
    "kind": "dev",
    "methods": {
      "approve(address,uint256)": {
        "details": "See {IERC721-approve}."
      },
      "balanceOf(address)": {
        "details": "See {IERC721-balanceOf}."
      },
      "getApproved(uint256)": {
        "details": "See {IERC721-getApproved}."
      },
      "isApprovedForAll(address,address)": {
        "details": "See {IERC721-isApprovedForAll}."
      },
      "name()": {
        "details": "See {IERC721Metadata-name}."
      },
      "owner()": {
        "details": "Returns the address of the current owner."
      },
      "ownerOf(uint256)": {
        "details": "See {IERC721-ownerOf}."
      },
      "renounceOwnership()": {
        "details": "Leaves the contract without owner. It will not be possible to call `onlyOwner` functions anymore. Can only be called by the current owner. NOTE: Renouncing ownership will leave the contract without an owner, thereby removing any functionality that is only available to the owner."
      },
      "safeTransferFrom(address,address,uint256)": {
        "details": "See {IERC721-safeTransferFrom}."
      },
      "safeTransferFrom(address,address,uint256,bytes)": {
        "details": "See {IERC721-safeTransferFrom}."
      },
      "setApprovalForAll(address,bool)": {
        "details": "See {IERC721-setApprovalForAll}."
      },
      "supportsInterface(bytes4)": {
        "details": "See {IERC165-supportsInterface}."
      },
      "symbol()": {
        "details": "See {IERC721Metadata-symbol}."
      },
      "transferFrom(address,address,uint256)": {
        "details": "See {IERC721-transferFrom}."
      },
      "transferOwnership(address)": {
        "details": "Transfers ownership of the contract to a new account (`newOwner`). Can only be called by the current owner."
      }
    },
    "version": 1
  },
  "userdoc": {
    "kind": "user",
    "methods": {},
    "version": 1
  }
}