{
  "contractName": "SmartContract",
  "abi": [
    {
      "inputs": [],
      "stateMutability": "nonpayable",
      "type": "constructor"
    },
    {
      "anonymous": false,
      "inputs": [
        {
          "indexed": true,
          "internalType": "address",
          "name": "owner",
          "type": "address"
        },
        {
          "indexed": true,
          "internalType": "address",
          "name": "approved",
          "type": "address"
        },
        {
          "indexed": true,
          "internalType": "uint256",
          "name": "tokenId",
          "type": "uint256"
        }
      ],
      "name": "Approval",
      "type": "event"
    },
    {
      "anonymous": false,
      "inputs": [
        {
          "indexed": true,
          "internalType": "address",
          "name": "owner",
          "type": "address"
        },
        {
          "indexed": true,
          "internalType": "address",
          "name": "operator",
          "type": "address"
        },
        {
          "indexed": false,
          "internalType": "bool",
          "name": "approved",
          "type": "bool"
        }
      ],
      "name": "ApprovalForAll",
      "type": "event"
    },
    {
      "anonymous": false,
      "inputs": [
        {
          "indexed": true,
          "internalType": "address",
          "name": "buyer",
          "type": "address"
        },
        {
          "indexed": false,
          "internalType": "uint256",
          "name": "amount",
          "type": "uint256"
        }
      ],
      "name": "Buy",
      "type": "event"
    },
    {
      "anonymous": false,
      "inputs": [
        {
          "indexed": true,
          "internalType": "address",
          "name": "previousOwner",
          "type": "address"
        },
        {
          "indexed": true,
          "internalType": "address",
          "name": "newOwner",
          "type": "address"
        }
      ],
      "name": "OwnershipTransferred",
      "type": "event"
    },
    {
      "anonymous": false,
      "inputs": [
        {
          "indexed": false,
          "internalType": "uint256",
          "name": "tokenId",
          "type": "uint256"
        },
        {
          "components": [
            {
              "internalType": "address payable",
              "name": "account",
              "type": "address"
            },
            {
              "internalType": "uint96",
              "name": "value",
              "type": "uint96"
            }
          ],
          "indexed": false,
          "internalType": "struct LibPart.Part[]",
          "name": "royalties",
          "type": "tuple[]"
        }
      ],
      "name": "RoyaltiesSet",
      "type": "event"
    },
    {
      "anonymous": false,
      "inputs": [
        {
          "indexed": true,
          "internalType": "address",
          "name": "from",
          "type": "address"
        },
        {
          "indexed": true,
          "internalType": "address",
          "name": "to",
          "type": "address"
        },
        {
          "indexed": true,
          "internalType": "uint256",
          "name": "tokenId",
          "type": "uint256"
        }
      ],
      "name": "Transfer",
      "type": "event"
    },
    {
      "anonymous": false,
      "inputs": [
        {
          "indexed": true,
          "internalType": "address",
          "name": "preVerifier",
          "type": "address"
        },
        {
          "indexed": true,
          "internalType": "address",
          "name": "newVerifier",
          "type": "address"
        }
      ],
      "name": "VerifierSet",
      "type": "event"
    },
    {
      "anonymous": false,
      "inputs": [
        {
          "indexed": true,
          "internalType": "address",
          "name": "recipient",
          "type": "address"
        },
        {
          "indexed": false,
          "internalType": "uint256",
          "name": "amount",
          "type": "uint256"
        }
      ],
      "name": "Withdraw",
      "type": "event"
    },
    {
      "inputs": [
        {
          "internalType": "address",
          "name": "",
          "type": "address"
        }
      ],
      "name": "addressNftBalance",
      "outputs": [
        {
          "internalType": "uint256",
          "name": "",
          "type": "uint256"
        }
      ],
      "stateMutability": "view",
      "type": "function",
      "constant": true
    },
    {
      "inputs": [
        {
          "internalType": "address",
          "name": "to",
          "type": "address"
        },
        {
          "internalType": "uint256",
          "name": "tokenId",
          "type": "uint256"
        }
      ],
      "name": "approve",
      "outputs": [],
      "stateMutability": "nonpayable",
      "type": "function"
    },
    {
      "inputs": [
        {
          "internalType": "address",
          "name": "owner",
          "type": "address"
        }
      ],
      "name": "balanceOf",
      "outputs": [
        {
          "internalType": "uint256",
          "name": "",
          "type": "uint256"
        }
      ],
      "stateMutability": "view",
      "type": "function",
      "constant": true
    },
    {
      "inputs": [],
      "name": "baseExtension",
      "outputs": [
        {
          "internalType": "string",
          "name": "",
          "type": "string"
        }
      ],
      "stateMutability": "view",
      "type": "function",
      "constant": true
    },
    {
      "inputs": [],
      "name": "baseTokenURI",
      "outputs": [
        {
          "internalType": "string",
          "name": "",
          "type": "string"
        }
      ],
      "stateMutability": "view",
      "type": "function",
      "constant": true
    },
    {
      "inputs": [
        {
          "internalType": "uint256",
          "name": "tokenId",
          "type": "uint256"
        }
      ],
      "name": "getApproved",
      "outputs": [
        {
          "internalType": "address",
          "name": "",
          "type": "address"
        }
      ],
      "stateMutability": "view",
      "type": "function",
      "constant": true
    },
    {
      "inputs": [
        {
          "internalType": "uint256",
          "name": "id",
          "type": "uint256"
        }
      ],
      "name": "getRaribleV2Royalties",
      "outputs": [
        {
          "components": [
            {
              "internalType": "address payable",
              "name": "account",
              "type": "address"
            },
            {
              "internalType": "uint96",
              "name": "value",
              "type": "uint96"
            }
          ],
          "internalType": "struct LibPart.Part[]",
          "name": "",
          "type": "tuple[]"
        }
      ],
      "stateMutability": "view",
      "type": "function",
      "constant": true
    },
    {
      "inputs": [
        {
          "internalType": "address",
          "name": "owner",
          "type": "address"
        },
        {
          "internalType": "address",
          "name": "operator",
          "type": "address"
        }
      ],
      "name": "isApprovedForAll",
      "outputs": [
        {
          "internalType": "bool",
          "name": "",
          "type": "bool"
        }
      ],
      "stateMutability": "view",
      "type": "function",
      "constant": true
    },
    {
      "inputs": [],
      "name": "listingPrice",
      "outputs": [
        {
          "internalType": "uint256",
          "name": "",
          "type": "uint256"
        }
      ],
      "stateMutability": "view",
      "type": "function",
      "constant": true
    },
    {
      "inputs": [],
      "name": "maxSupply",
      "outputs": [
        {
          "internalType": "uint256",
          "name": "",
          "type": "uint256"
        }
      ],
      "stateMutability": "view",
      "type": "function",
      "constant": true
    },
    {
      "inputs": [],
      "name": "name",
      "outputs": [
        {
          "internalType": "string",
          "name": "",
          "type": "string"
        }
      ],
      "stateMutability": "view",
      "type": "function",
      "constant": true
    },
    {
      "inputs": [],
      "name": "nftLimitPerAddress",
      "outputs": [
        {
          "internalType": "uint256",
          "name": "",
          "type": "uint256"
        }
      ],
      "stateMutability": "view",
      "type": "function",
      "constant": true
    },
    {
      "inputs": [],
      "name": "owner",
      "outputs": [
        {
          "internalType": "address",
          "name": "",
          "type": "address"
        }
      ],
      "stateMutability": "view",
      "type": "function",
      "constant": true
    },
    {
      "inputs": [
        {
          "internalType": "uint256",
          "name": "tokenId",
          "type": "uint256"
        }
      ],
      "name": "ownerOf",
      "outputs": [
        {
          "internalType": "address",
          "name": "",
          "type": "address"
        }
      ],
      "stateMutability": "view",
      "type": "function",
      "constant": true
    },
    {
      "inputs": [],
      "name": "pause",
      "outputs": [
        {
          "internalType": "bool",
          "name": "",
          "type": "bool"
        }
      ],
      "stateMutability": "view",
      "type": "function",
      "constant": true
    },
    {
      "inputs": [],
      "name": "renounceOwnership",
      "outputs": [],
      "stateMutability": "nonpayable",
      "type": "function"
    },
    {
      "inputs": [
        {
          "internalType": "address",
          "name": "from",
          "type": "address"
        },
        {
          "internalType": "address",
          "name": "to",
          "type": "address"
        },
        {
          "internalType": "uint256",
          "name": "tokenId",
          "type": "uint256"
        }
      ],
      "name": "safeTransferFrom",
      "outputs": [],
      "stateMutability": "nonpayable",
      "type": "function"
    },
    {
      "inputs": [
        {
          "internalType": "address",
          "name": "from",
          "type": "address"
        },
        {
          "internalType": "address",
          "name": "to",
          "type": "address"
        },
        {
          "internalType": "uint256",
          "name": "tokenId",
          "type": "uint256"
        },
        {
          "internalType": "bytes",
          "name": "_data",
          "type": "bytes"
        }
      ],
      "name": "safeTransferFrom",
      "outputs": [],
      "stateMutability": "nonpayable",
      "type": "function"
    },
    {
      "inputs": [
        {
          "internalType": "address",
          "name": "operator",
          "type": "address"
        },
        {
          "internalType": "bool",
          "name": "approved",
          "type": "bool"
        }
      ],
      "name": "setApprovalForAll",
      "outputs": [],
      "stateMutability": "nonpayable",
      "type": "function"
    },
    {
      "inputs": [],
      "name": "symbol",
      "outputs": [
        {
          "internalType": "string",
          "name": "",
          "type": "string"
        }
      ],
      "stateMutability": "view",
      "type": "function",
      "constant": true
    },
    {
      "inputs": [
        {
          "internalType": "address",
          "name": "from",
          "type": "address"
        },
        {
          "internalType": "address",
          "name": "to",
          "type": "address"
        },
        {
          "internalType": "uint256",
          "name": "tokenId",
          "type": "uint256"
        }
      ],
      "name": "transferFrom",
      "outputs": [],
      "stateMutability": "nonpayable",
      "type": "function"
    },
    {
      "inputs": [
        {
          "internalType": "address",
          "name": "newOwner",
          "type": "address"
        }
      ],
      "name": "transferOwnership",
      "outputs": [],
      "stateMutability": "nonpayable",
      "type": "function"
    },
    {
      "inputs": [],
      "name": "verifier",
      "outputs": [
        {
          "internalType": "address",
          "name": "",
          "type": "address"
        }
      ],
      "stateMutability": "view",
      "type": "function",
      "constant": true
    },
    {
      "inputs": [],
      "name": "getTotalSupply",
      "outputs": [
        {
          "internalType": "uint256",
          "name": "",
          "type": "uint256"
        }
      ],
      "stateMutability": "view",
      "type": "function",
      "constant": true
    },
    {
      "inputs": [
        {
          "internalType": "address",
          "name": "recipient",
          "type": "address"
        },
        {
          "internalType": "bytes",
          "name": "_whitelistedSig",
          "type": "bytes"
        }
      ],
      "name": "mint",
      "outputs": [
        {
          "internalType": "uint256",
          "name": "",
          "type": "uint256"
        }
      ],
      "stateMutability": "payable",
      "type": "function",
      "payable": true
    },
    {
      "inputs": [
        {
          "internalType": "string",
          "name": "_newBaseURI",
          "type": "string"
        }
      ],
      "name": "setBaseURI",
      "outputs": [],
      "stateMutability": "nonpayable",
      "type": "function"
    },
    {
      "inputs": [
        {
          "internalType": "uint256",
          "name": "_tokenId",
          "type": "uint256"
        }
      ],
      "name": "tokenURI",
      "outputs": [
        {
          "internalType": "string",
          "name": "",
          "type": "string"
        }
      ],
      "stateMutability": "view",
      "type": "function",
      "constant": true
    },
    {
      "inputs": [
        {
          "internalType": "string",
          "name": "_newBaseExtension",
          "type": "string"
        }
      ],
      "name": "setBaseExtension",
      "outputs": [],
      "stateMutability": "nonpayable",
      "type": "function"
    },
    {
      "inputs": [
        {
          "internalType": "bool",
          "name": "_pause",
          "type": "bool"
        }
      ],
      "name": "pauseSale",
      "outputs": [],
      "stateMutability": "nonpayable",
      "type": "function"
    },
    {
      "inputs": [
        {
          "internalType": "address",
          "name": "_newVerifier",
          "type": "address"
        }
      ],
      "name": "setVerifier",
      "outputs": [],
      "stateMutability": "nonpayable",
      "type": "function"
    },
    {
      "inputs": [
        {
          "internalType": "address payable",
          "name": "_recipient",
          "type": "address"
        },
        {
          "internalType": "uint256",
          "name": "_amount",
          "type": "uint256"
        }
      ],
      "name": "withdrawToAddress",
      "outputs": [],
      "stateMutability": "nonpayable",
      "type": "function"
    },
    {
      "inputs": [],
      "name": "getWhitelistConstant",
      "outputs": [
        {
          "internalType": "bytes32",
          "name": "",
          "type": "bytes32"
        }
      ],
      "stateMutability": "pure",
      "type": "function",
      "constant": true
    },
    {
      "inputs": [
        {
          "internalType": "uint256",
          "name": "_tokenId",
          "type": "uint256"
        },
        {
          "internalType": "uint256",
          "name": "_salePrice",
          "type": "uint256"
        }
      ],
      "name": "royaltyInfo",
      "outputs": [
        {
          "internalType": "address",
          "name": "receiver",
          "type": "address"
        },
        {
          "internalType": "uint256",
          "name": "royaltyAmount",
          "type": "uint256"
        }
      ],
      "stateMutability": "view",
      "type": "function",
      "constant": true
    },
    {
      "inputs": [
        {
          "internalType": "bytes4",
          "name": "_interfaceId",
          "type": "bytes4"
        }
      ],
      "name": "supportsInterface",
      "outputs": [
        {
          "internalType": "bool",
          "name": "",
          "type": "bool"
        }
      ],
      "stateMutability": "view",
      "type": "function",
      "constant": true
    }
  ],
  "bytecode": "0x600a805460ff1916600117905560c06040526005608081905264173539b7b760d91b60a09081526200003591600b91906200013f565b506703782dace9d90000600d556103e8600e556003600f553480156200005a57600080fd5b50604080518082018252600e81526d14db585c9d0810dbdb9d1c9858dd60921b602080830191825283518085019094526002845261534360f01b908401528151919291620000ab916000916200013f565b508051620000c19060019060208401906200013f565b505050620000de620000d8620000e960201b60201c565b620000ed565b600160075562000222565b3390565b600680546001600160a01b038381166001600160a01b0319831681179093556040519116919082907f8be0079c531659141344cd1fd0a4f28419497f9722a3daafe3b4186f6b6457e090600090a35050565b8280546200014d90620001e5565b90600052602060002090601f016020900481019282620001715760008555620001bc565b82601f106200018c57805160ff1916838001178555620001bc565b82800160010185558215620001bc579182015b82811115620001bc5782518255916020019190600101906200019f565b50620001ca929150620001ce565b5090565b5b80821115620001ca5760008155600101620001cf565b600281046001821680620001fa57607f821691505b602082108114156200021c57634e487b7160e01b600052602260045260246000fd5b50919050565b612d8380620002326000396000f3fe6080604052600436106101f95760003560e01c8063868accc81161010d578063c6682862116100a0578063d547cfb71161006f578063d547cfb714610572578063d5abeb0114610587578063da3ef23f1461059c578063e985e9c5146105bc578063f2fde38b146105dc576101f9565b8063c6682862146104fb578063c78f19f914610510578063c87b56dd14610525578063cad96cca14610545576101f9565b8063a9ef2a40116100dc578063a9ef2a4014610493578063b510391f146104b3578063b88d4fde146104c6578063c4e41b22146104e6576101f9565b8063868accc8146104345780638da5cb5b1461044957806395d89b411461045e578063a22cb46514610473576101f9565b80632e302fb41161019057806355f804b31161015f57806355f804b3146103aa5780636352211e146103ca57806370a08231146103ea578063715018a61461040a5780638456cb591461041f576101f9565b80632e302fb41461032857806335bdac341461034a57806342842e0e1461036a5780635437988d1461038a576101f9565b80630cfed2a2116101cc5780630cfed2a2146102a557806323b872dd146102c55780632a55205a146102e55780632b7ac3f314610313576101f9565b806301ffc9a7146101fe57806306fdde0314610234578063081812fc14610256578063095ea7b314610283575b600080fd5b34801561020a57600080fd5b5061021e61021936600461222e565b6105fc565b60405161022b91906124f7565b60405180910390f35b34801561024057600080fd5b50610249610651565b60405161022b9190612559565b34801561026257600080fd5b506102766102713660046122ac565b6106e3565b60405161022b919061247a565b34801561028f57600080fd5b506102a361029e366004612202565b61072f565b005b3480156102b157600080fd5b506102a36102c0366004612214565b6107c7565b3480156102d157600080fd5b506102a36102e03660046120d6565b610819565b3480156102f157600080fd5b506103056103003660046122c4565b610851565b60405161022b9291906124cb565b34801561031f57600080fd5b50610276610973565b34801561033457600080fd5b5061033d610982565b60405161022b9190612502565b34801561035657600080fd5b506102a3610365366004612073565b6109a6565b34801561037657600080fd5b506102a36103853660046120d6565b610ab4565b34801561039657600080fd5b506102a36103a5366004612057565b610acf565b3480156103b657600080fd5b506102a36103c5366004612266565b610b6a565b3480156103d657600080fd5b506102766103e53660046122ac565b610bc0565b3480156103f657600080fd5b5061033d610405366004612057565b610bf5565b34801561041657600080fd5b506102a3610c39565b34801561042b57600080fd5b5061021e610c84565b34801561044057600080fd5b5061033d610c8d565b34801561045557600080fd5b50610276610c93565b34801561046a57600080fd5b50610249610ca2565b34801561047f57600080fd5b506102a361048e366004612180565b610cb1565b34801561049f57600080fd5b5061033d6104ae366004612057565b610cc3565b61033d6104c13660046121b4565b610cd5565b3480156104d257600080fd5b506102a36104e1366004612116565b610e66565b3480156104f257600080fd5b5061033d610ea5565b34801561050757600080fd5b50610249610eb6565b34801561051c57600080fd5b5061033d610f44565b34801561053157600080fd5b506102496105403660046122ac565b610f4a565b34801561055157600080fd5b506105656105603660046122ac565b610fd0565b60405161022b91906124e4565b34801561057e57600080fd5b5061024961105f565b34801561059357600080fd5b5061033d61106c565b3480156105a857600080fd5b506102a36105b7366004612266565b611072565b3480156105c857600080fd5b5061021e6105d736600461209e565b6110c4565b3480156105e857600080fd5b506102a36105f7366004612057565b6110f2565b60006001600160e01b0319821663656cb66560e11b141561061f5750600161064c565b6001600160e01b0319821663152a902d60e11b14156106405750600161064c565b61064982611163565b90505b919050565b60606000805461066090612c76565b80601f016020809104026020016040519081016040528092919081815260200182805461068c90612c76565b80156106d95780601f106106ae576101008083540402835291602001916106d9565b820191906000526020600020905b8154815290600101906020018083116106bc57829003601f168201915b5050505050905090565b60006106ee826111a3565b6107135760405162461bcd60e51b815260040161070a90612988565b60405180910390fd5b506000908152600460205260409020546001600160a01b031690565b600061073a82610bc0565b9050806001600160a01b0316836001600160a01b0316141561076e5760405162461bcd60e51b815260040161070a90612a52565b806001600160a01b03166107806111c0565b6001600160a01b0316148061079c575061079c816105d76111c0565b6107b85760405162461bcd60e51b815260040161070a906127e8565b6107c283836111c4565b505050565b6107cf6111c0565b6001600160a01b03166107e0610c93565b6001600160a01b0316146108065760405162461bcd60e51b815260040161070a906129d4565b600a805460ff1916911515919091179055565b61082a6108246111c0565b82611232565b6108465760405162461bcd60e51b815260040161070a90612abf565b6107c28383836112b7565b6000828152600860209081526040808320805482518185028101850190935280835284938493929190849084015b828210156108ce57600084815260209081902060408051808201909152908401546001600160a01b0381168252600160a01b90046001600160601b03168183015282526001909201910161087f565b50505050905060008151111561096357806000815181106108ff57634e487b7160e01b600052603260045260246000fd5b6020026020010151600001516127108260008151811061092f57634e487b7160e01b600052603260045260246000fd5b6020026020010151602001516001600160601b03168661094f9190612c14565b6109599190612c00565b925092505061096c565b60008092509250505b9250929050565b6010546001600160a01b031681565b7f9ab6299e562ce2a1eece2b7dc9f6af11cf4064bfb33bbc3ef71035f1ad89af5890565b6109ae6111c0565b6001600160a01b03166109bf610c93565b6001600160a01b0316146109e55760405162461bcd60e51b815260040161070a906129d4565b6000198114156109f25750475b6000826001600160a01b031682604051610a0b90612477565b60006040518083038185875af1925050503d8060008114610a48576040519150601f19603f3d011682016040523d82523d6000602084013e610a4d565b606091505b5050905080610a6e5760405162461bcd60e51b815260040161070a90612a93565b826001600160a01b03167f884edad9ce6fa2440d8a54cc123490eb96d2768479d49ff9c7366125a942436483604051610aa79190612502565b60405180910390a2505050565b6107c283838360405180602001604052806000815250610e66565b610ad76111c0565b6001600160a01b0316610ae8610c93565b6001600160a01b031614610b0e5760405162461bcd60e51b815260040161070a906129d4565b6010546040516001600160a01b038084169216907fab81081e8fd2866d32d2dd90fdfa53fa9e0aa3d7eed73c684b6dcc4e2c0369fd90600090a3601080546001600160a01b0319166001600160a01b0392909216919091179055565b610b726111c0565b6001600160a01b0316610b83610c93565b6001600160a01b031614610ba95760405162461bcd60e51b815260040161070a906129d4565b8051610bbc90600c906020840190611f08565b5050565b6000818152600260205260408120546001600160a01b0316806106495760405162461bcd60e51b815260040161070a906128d3565b60006001600160a01b038216610c1d5760405162461bcd60e51b815260040161070a90612889565b506001600160a01b031660009081526003602052604090205490565b610c416111c0565b6001600160a01b0316610c52610c93565b6001600160a01b031614610c785760405162461bcd60e51b815260040161070a906129d4565b610c8260006113e4565b565b600a5460ff1681565b600f5481565b6006546001600160a01b031690565b60606001805461066090612c76565b610bbc610cbc6111c0565b8383611436565b60116020526000908152604090205481565b600060026007541415610cfa5760405162461bcd60e51b815260040161070a90612b55565b6002600755600a5460ff1615610d225760405162461bcd60e51b815260040161070a9061256c565b610d2c83836114d9565b600d54341015610d4e5760405162461bcd60e51b815260040161070a9061268b565b600e54610d5b6009611520565b10610d785760405162461bcd60e51b815260040161070a906125ec565b600f546001600160a01b0384166000908152601160205260409020541115610db25760405162461bcd60e51b815260040161070a90612951565b610dbc6009611524565b6000610dc86009611520565b9050610dd4848261152d565b6001600160a01b0384166000908152601160205260408120805491610df883612cb1565b9190505550610e0a81306103e8611547565b6001600160a01b038416600081815260116020526040908190205490517fe3d4187f6ca4248660cc0ac8b8056515bac4a8132be2eca31d6d0cc170722a7e91610e5291612502565b60405180910390a260016007559392505050565b610e77610e716111c0565b83611232565b610e935760405162461bcd60e51b815260040161070a90612abf565b610e9f84848484611605565b50505050565b6000610eb16009611520565b905090565b600b8054610ec390612c76565b80601f0160208091040260200160405190810160405280929190818152602001828054610eef90612c76565b8015610f3c5780601f10610f1157610100808354040283529160200191610f3c565b820191906000526020600020905b815481529060010190602001808311610f1f57829003601f168201915b505050505081565b600d5481565b6060610f55826111a3565b610f715760405162461bcd60e51b815260040161070a90612845565b6000610f7b611638565b90506000815111610f9b5760405180602001604052806000815250610fc9565b80610fa584611647565b600b604051602001610fb993929190612384565b6040516020818303038152906040525b9392505050565b606060086000838152602001908152602001600020805480602002602001604051908101604052809291908181526020016000905b8282101561105457600084815260209081902060408051808201909152908401546001600160a01b0381168252600160a01b90046001600160601b031681830152825260019092019101611005565b505050509050919050565b600c8054610ec390612c76565b600e5481565b61107a6111c0565b6001600160a01b031661108b610c93565b6001600160a01b0316146110b15760405162461bcd60e51b815260040161070a906129d4565b8051610bbc90600b906020840190611f08565b6001600160a01b03918216600090815260056020908152604080832093909416825291909152205460ff1690565b6110fa6111c0565b6001600160a01b031661110b610c93565b6001600160a01b0316146111315760405162461bcd60e51b815260040161070a906129d4565b6001600160a01b0381166111575760405162461bcd60e51b815260040161070a9061260e565b611160816113e4565b50565b60006001600160e01b031982166380ac58cd60e01b148061119457506001600160e01b03198216635b5e139f60e01b145b80610649575061064982611762565b6000908152600260205260409020546001600160a01b0316151590565b3390565b600081815260046020526040902080546001600160a01b0319166001600160a01b03841690811790915581906111f982610bc0565b6001600160a01b03167f8c5be1e5ebec7d5bd14f71427d1e84f3dd0314c0f7b2291e5b200ac8c7c3b92560405160405180910390a45050565b600061123d826111a3565b6112595760405162461bcd60e51b815260040161070a90612767565b600061126483610bc0565b9050806001600160a01b0316846001600160a01b0316148061129f5750836001600160a01b0316611294846106e3565b6001600160a01b0316145b806112af57506112af81856110c4565b949350505050565b826001600160a01b03166112ca82610bc0565b6001600160a01b0316146112f05760405162461bcd60e51b815260040161070a90612a09565b6001600160a01b0382166113165760405162461bcd60e51b815260040161070a906126b5565b6113218383836107c2565b61132c6000826111c4565b6001600160a01b0383166000908152600360205260408120805460019290611355908490612c33565b90915550506001600160a01b0382166000908152600360205260408120805460019290611383908490612be8565b909155505060008181526002602052604080822080546001600160a01b0319166001600160a01b0386811691821790925591518493918716917fddf252ad1be2c89b69c2b068fc378daa952ba7f163c4a11628f55a4df523b3ef91a4505050565b600680546001600160a01b038381166001600160a01b0319831681179093556040519116919082907f8be0079c531659141344cd1fd0a4f28419497f9722a3daafe3b4186f6b6457e090600090a35050565b816001600160a01b0316836001600160a01b031614156114685760405162461bcd60e51b815260040161070a906126f9565b6001600160a01b0383811660008181526005602090815260408083209487168084529490915290819020805460ff1916851515179055517f17307eab39ab6107e8899845ad3d59bd9653f200f220920489ca2b5937696c31906114cc9085906124f7565b60405180910390a3505050565b6115047f9ab6299e562ce2a1eece2b7dc9f6af11cf4064bfb33bbc3ef71035f1ad89af58838361177b565b610bbc5760405162461bcd60e51b815260040161070a90612730565b5490565b80546001019055565b610bbc8282604051806020016040528060008152506117c4565b604080516001808252818301909252600091816020015b611566611f8c565b81526020019060019003908161155e579050509050818160008151811061159d57634e487b7160e01b600052603260045260246000fd5b6020026020010151602001906001600160601b031690816001600160601b03168152505082816000815181106115e357634e487b7160e01b600052603260045260246000fd5b60209081029190910101516001600160a01b039091169052610e9f84826117f7565b6116108484846112b7565b61161c848484846119c5565b610e9f5760405162461bcd60e51b815260040161070a9061259a565b6060600c805461066090612c76565b60608161166c57506040805180820190915260018152600360fc1b602082015261064c565b8160005b8115611696578061168081612cb1565b915061168f9050600a83612c00565b9150611670565b60008167ffffffffffffffff8111156116bf57634e487b7160e01b600052604160045260246000fd5b6040519080825280601f01601f1916602001820160405280156116e9576020820181803683370190505b5090505b84156112af576116fe600183612c33565b915061170b600a86612ccc565b611716906030612be8565b60f81b81838151811061173957634e487b7160e01b600052603260045260246000fd5b60200101906001600160f81b031916908160001a90535061175b600a86612c00565b94506116ed565b6001600160e01b031981166301ffc9a760e01b14919050565b60006112af6117b1858560405160200161179692919061250b565b60405160208183030381529060405280519060200120611ae0565b6010546001600160a01b03169084611b10565b6117ce8383611c6a565b6117db60008484846119c5565b6107c25760405162461bcd60e51b815260040161070a9061259a565b6000805b82518110156119995760006001600160a01b031683828151811061182f57634e487b7160e01b600052603260045260246000fd5b6020026020010151600001516001600160a01b031614156118625760405162461bcd60e51b815260040161070a90612b8c565b82818151811061188257634e487b7160e01b600052603260045260246000fd5b6020026020010151602001516001600160601b0316600014156118b75760405162461bcd60e51b815260040161070a906127b3565b8281815181106118d757634e487b7160e01b600052603260045260246000fd5b6020026020010151602001516001600160601b0316826118f79190612be8565b91506008600085815260200190815260200160002083828151811061192c57634e487b7160e01b600052603260045260246000fd5b602090810291909101810151825460018101845560009384529282902081519301805491909201516001600160601b0316600160a01b026001600160a01b039384166001600160a01b0319909216919091179092169190911790558061199181612cb1565b9150506117fb565b5061271081106119bb5760405162461bcd60e51b815260040161070a90612b10565b6107c28383611d49565b60006119d9846001600160a01b0316611d86565b15611ad557836001600160a01b031663150b7a026119f56111c0565b8786866040518563ffffffff1660e01b8152600401611a17949392919061248e565b602060405180830381600087803b158015611a3157600080fd5b505af1925050508015611a61575060408051601f3d908101601f19168201909252611a5e9181019061224a565b60015b611abb573d808015611a8f576040519150601f19603f3d011682016040523d82523d6000602084013e611a94565b606091505b508051611ab35760405162461bcd60e51b815260040161070a9061259a565b805181602001fd5b6001600160e01b031916630a85bd0160e11b1490506112af565b506001949350505050565b600081604051602001611af39190612446565b604051602081830303815290604052805190602001209050919050565b6000806000611b1f8585611d8c565b90925090506000816004811115611b4657634e487b7160e01b600052602160045260246000fd5b148015611b645750856001600160a01b0316826001600160a01b0316145b15611b7457600192505050610fc9565b600080876001600160a01b0316631626ba7e60e01b8888604051602401611b9c929190612522565b60408051601f198184030181529181526020820180516001600160e01b03166001600160e01b0319909416939093179092529051611bda9190612368565b600060405180830381855afa9150503d8060008114611c15576040519150601f19603f3d011682016040523d82523d6000602084013e611c1a565b606091505b5091509150818015611c2d575080516020145b8015611c5e57508051630b135d3f60e11b90611c52908301602090810190840161224a565b6001600160e01b031916145b98975050505050505050565b6001600160a01b038216611c905760405162461bcd60e51b815260040161070a9061291c565b611c99816111a3565b15611cb65760405162461bcd60e51b815260040161070a90612654565b611cc2600083836107c2565b6001600160a01b0382166000908152600360205260408120805460019290611ceb908490612be8565b909155505060008181526002602052604080822080546001600160a01b0319166001600160a01b03861690811790915590518392907fddf252ad1be2c89b69c2b068fc378daa952ba7f163c4a11628f55a4df523b3ef908290a45050565b7f3fa96d7b6bcbfe71ef171666d84db3cf52fa2d1c8afdb1cc8e486177f208b7df8282604051611d7a929190612bc3565b60405180910390a15050565b3b151590565b600080825160411415611dc35760208301516040840151606085015160001a611db787828585611df9565b9450945050505061096c565b825160401415611ded5760208301516040840151611de2868383611ed9565b93509350505061096c565b5060009050600261096c565b6000807f7fffffffffffffffffffffffffffffff5d576e7357a4501ddfe92f46681b20a0831115611e305750600090506003611ed0565b8460ff16601b14158015611e4857508460ff16601c14155b15611e595750600090506004611ed0565b600060018787878760405160008152602001604052604051611e7e949392919061253b565b6020604051602081039080840390855afa158015611ea0573d6000803e3d6000fd5b5050604051601f1901519150506001600160a01b038116611ec957600060019250925050611ed0565b9150600090505b94509492505050565b6000806001600160ff1b03831660ff84901c601b01611efa87828885611df9565b935093505050935093915050565b828054611f1490612c76565b90600052602060002090601f016020900481019282611f365760008555611f7c565b82601f10611f4f57805160ff1916838001178555611f7c565b82800160010185558215611f7c579182015b82811115611f7c578251825591602001919060010190611f61565b50611f88929150611fa3565b5090565b604080518082019091526000808252602082015290565b5b80821115611f885760008155600101611fa4565b600067ffffffffffffffff80841115611fd357611fd3612d0c565b604051601f8501601f191681016020018281118282101715611ff757611ff7612d0c565b60405284815291508183850186101561200f57600080fd5b8484602083013760006020868301015250509392505050565b8035801515811461064c57600080fd5b600082601f830112612048578081fd5b610fc983833560208501611fb8565b600060208284031215612068578081fd5b8135610fc981612d22565b60008060408385031215612085578081fd5b823561209081612d22565b946020939093013593505050565b600080604083850312156120b0578182fd5b82356120bb81612d22565b915060208301356120cb81612d22565b809150509250929050565b6000806000606084860312156120ea578081fd5b83356120f581612d22565b9250602084013561210581612d22565b929592945050506040919091013590565b6000806000806080858703121561212b578081fd5b843561213681612d22565b9350602085013561214681612d22565b925060408501359150606085013567ffffffffffffffff811115612168578182fd5b61217487828801612038565b91505092959194509250565b60008060408385031215612192578182fd5b823561219d81612d22565b91506121ab60208401612028565b90509250929050565b600080604083850312156121c6578182fd5b82356121d181612d22565b9150602083013567ffffffffffffffff8111156121ec578182fd5b6121f885828601612038565b9150509250929050565b60008060408385031215612085578182fd5b600060208284031215612225578081fd5b610fc982612028565b60006020828403121561223f578081fd5b8135610fc981612d37565b60006020828403121561225b578081fd5b8151610fc981612d37565b600060208284031215612277578081fd5b813567ffffffffffffffff81111561228d578182fd5b8201601f8101841361229d578182fd5b6112af84823560208401611fb8565b6000602082840312156122bd578081fd5b5035919050565b600080604083850312156122d6578182fd5b50508035926020909101359150565b6000815180845260208085019450808401835b8381101561233157815180516001600160a01b031688528301516001600160601b031683880152604090960195908201906001016122f8565b509495945050505050565b60008151808452612354816020860160208601612c4a565b601f01601f19169290920160200192915050565b6000825161237a818460208701612c4a565b9190910192915050565b6000845160206123978285838a01612c4a565b8551918401916123aa8184848a01612c4a565b85549201918390600281046001808316806123c657607f831692505b8583108114156123e457634e487b7160e01b88526022600452602488fd5b8080156123f8576001811461240957612435565b60ff19851688528388019550612435565b6124128b612bdc565b895b8581101561242d5781548a820152908401908801612414565b505083880195505b50939b9a5050505050505050505050565b7f19457468657265756d205369676e6564204d6573736167653a0a3332000000008152601c810191909152603c0190565b90565b6001600160a01b0391909116815260200190565b6001600160a01b03858116825284166020820152604081018390526080606082018190526000906124c19083018461233c565b9695505050505050565b6001600160a01b03929092168252602082015260400190565b600060208252610fc960208301846122e5565b901515815260200190565b90815260200190565b9182526001600160a01b0316602082015260400190565b6000838252604060208301526112af604083018461233c565b93845260ff9290921660208401526040830152606082015260800190565b600060208252610fc9602083018461233c565b60208082526014908201527314d85b19481a185cc81899595b881c185d5cd95960621b604082015260600190565b60208082526032908201527f4552433732313a207472616e7366657220746f206e6f6e20455243373231526560408201527131b2b4bb32b91034b6b83632b6b2b73a32b960711b606082015260800190565b60208082526008908201526714dbdb190813dd5d60c21b604082015260600190565b60208082526026908201527f4f776e61626c653a206e6577206f776e657220697320746865207a65726f206160408201526564647265737360d01b606082015260800190565b6020808252601c908201527f4552433732313a20746f6b656e20616c7265616479206d696e74656400000000604082015260600190565b60208082526010908201526f4e6f7420656e6f7567682066756e647360801b604082015260600190565b60208082526024908201527f4552433732313a207472616e7366657220746f20746865207a65726f206164646040820152637265737360e01b606082015260800190565b60208082526019908201527f4552433732313a20617070726f766520746f2063616c6c657200000000000000604082015260600190565b6020808252601a908201527f41646472657373206973206e6f742077686974656c6973746564000000000000604082015260600190565b6020808252602c908201527f4552433732313a206f70657261746f7220717565727920666f72206e6f6e657860408201526b34b9ba32b73a103a37b5b2b760a11b606082015260800190565b6020808252818101527f526f79616c74792076616c75652073686f756c6420626520706f736974697665604082015260600190565b60208082526038908201527f4552433732313a20617070726f76652063616c6c6572206973206e6f74206f7760408201527f6e6572206e6f7220617070726f76656420666f7220616c6c0000000000000000606082015260800190565b60208082526024908201527f4e46543a2055524920717565727920666f72206e6f6e6578697374656e74207460408201526337b5b2b760e11b606082015260800190565b6020808252602a908201527f4552433732313a2062616c616e636520717565727920666f7220746865207a65604082015269726f206164647265737360b01b606082015260800190565b60208082526029908201527f4552433732313a206f776e657220717565727920666f72206e6f6e657869737460408201526832b73a103a37b5b2b760b91b606082015260800190565b6020808252818101527f4552433732313a206d696e7420746f20746865207a65726f2061646472657373604082015260600190565b6020808252601b908201527f4d6178204e465420706572206164647265737320726561636865640000000000604082015260600190565b6020808252602c908201527f4552433732313a20617070726f76656420717565727920666f72206e6f6e657860408201526b34b9ba32b73a103a37b5b2b760a11b606082015260800190565b6020808252818101527f4f776e61626c653a2063616c6c6572206973206e6f7420746865206f776e6572604082015260600190565b60208082526029908201527f4552433732313a207472616e73666572206f6620746f6b656e2074686174206960408201526839903737ba1037bbb760b91b606082015260800190565b60208082526021908201527f4552433732313a20617070726f76616c20746f2063757272656e74206f776e656040820152603960f91b606082015260800190565b602080825260129082015271151c985b9cd858dd1a5bdb8819985a5b195960721b604082015260600190565b60208082526031908201527f4552433732313a207472616e736665722063616c6c6572206973206e6f74206f6040820152701ddb995c881b9bdc88185c1c1c9bdd9959607a1b606082015260800190565b60208082526025908201527f526f79616c747920746f74616c2076616c75652073686f756c64206265203c20604082015264031303030360dc1b606082015260800190565b6020808252601f908201527f5265656e7472616e637947756172643a207265656e7472616e742063616c6c00604082015260600190565b6020808252601b908201527f526563697069656e742073686f756c642062652070726573656e740000000000604082015260600190565b6000838252604060208301526112af60408301846122e5565b60009081526020902090565b60008219821115612bfb57612bfb612ce0565b500190565b600082612c0f57612c0f612cf6565b500490565b6000816000190483118215151615612c2e57612c2e612ce0565b500290565b600082821015612c4557612c45612ce0565b500390565b60005b83811015612c65578181015183820152602001612c4d565b83811115610e9f5750506000910152565b600281046001821680612c8a57607f821691505b60208210811415612cab57634e487b7160e01b600052602260045260246000fd5b50919050565b6000600019821415612cc557612cc5612ce0565b5060010190565b600082612cdb57612cdb612cf6565b500690565b634e487b7160e01b600052601160045260246000fd5b634e487b7160e01b600052601260045260246000fd5b634e487b7160e01b600052604160045260246000fd5b6001600160a01b038116811461116057600080fd5b6001600160e01b03198116811461116057600080fdfea2646970667358221220f46ad631d36e49d23036a1436c75cebe33006dab3b81b57f10172eca4d0b252564736f6c63430008000033",
  "immutableReferences": {},
  "source": "// SPDX-License-Identifier: MIT\n\npragma solidity >=0.7.0 <0.9.0;\n\nimport \"@openzeppelin/contracts/token/ERC721/ERC721.sol\";\nimport \"@openzeppelin/contracts/access/Ownable.sol\";\nimport \"@openzeppelin/contracts/security/ReentrancyGuard.sol\";\nimport \"@openzeppelin/contracts/utils/Counters.sol\";\nimport \"@openzeppelin/contracts/utils/cryptography/SignatureChecker.sol\";\nimport \"@openzeppelin/contracts/utils/cryptography/ECDSA.sol\";\nimport \"@openzeppelin/contracts/utils/Strings.sol\";\nimport \"./@rarible/royalties/contracts/impl/RoyaltiesV2Impl.sol\";\nimport \"./@rarible/royalties/contracts/LibPart.sol\";\nimport \"./@rarible/royalties/contracts/LibRoyaltiesV2.sol\";\n\n\ncontract SmartContract is ERC721, Ownable, ReentrancyGuard, RoyaltiesV2Impl {\n  using Strings for uint256;\n  using Counters for Counters.Counter;\n  using ECDSA for bytes32;\n  using SignatureChecker for address;\n\n  event Buy(address indexed buyer, uint256 amount);\n  event VerifierSet(address indexed preVerifier, address indexed newVerifier);\n  event Withdraw(address indexed recipient, uint256 amount);\n\n  Counters.Counter private tokenId;\n\n  bool public pause = true;\n\n  string public baseExtension = \".json\";\n  string public baseTokenURI;\n\n  uint256 public listingPrice = 0.25 ether;\n  uint256 public maxSupply = 1000;\n  uint256 public nftLimitPerAddress = 3;\n\n  address public verifier;\n\n  mapping(address => uint256) public addressNftBalance;\n\n  // domain separators\n  // keccak256(\"bb-nfts.access.is-whitelisted(address)\")\n  bytes32 internal constant DS_IS_WHITELISTED = 0x9ab6299e562ce2a1eece2b7dc9f6af11cf4064bfb33bbc3ef71035f1ad89af58;\n  bytes4 private constant _INTERFACE_ID_ERC2981 = 0x2a55205a;\n\n  constructor(\n    // string memory _baseTokenURI,\n    // address _verifier\n    ) \n    ERC721(\"Smart Contract\", \"SC\") \n    Ownable()\n    ReentrancyGuard()\n    {\n    //  baseTokenURI = _baseTokenURI; \n    //  verifier = _verifier;\n    //  emit VerifierSet(address(0), _verifier);\n  }\n\n  function getTotalSupply() external view returns (uint256) {\n    return tokenId.current();\n  }\n\n  function mint(address recipient, bytes memory _whitelistedSig) external payable nonReentrant returns (uint256) {\n    require(pause == false, \"Sale has been paused\");\n    _verifyWhitelist(recipient, _whitelistedSig);\n    require(msg.value >= listingPrice, \"Not enough funds\");\n    require(tokenId.current() < maxSupply, \"Sold Out\");\n    require(addressNftBalance[recipient] <= nftLimitPerAddress, \"Max NFT per address reached\");\n\n    tokenId.increment();\n    uint256 newId = tokenId.current();\n    _safeMint(recipient, newId);\n    addressNftBalance[recipient]++;\n    // 1000 percentageBasisPoints = 10%\n    setRoyalties(newId, payable(address(this)), 1000);\n    emit Buy(recipient, addressNftBalance[recipient]);\n\n    return newId;\n  }\n\n  function setBaseURI(string memory _newBaseURI) external onlyOwner {\n    baseTokenURI = _newBaseURI;\n  }\n\n  function _baseURI() internal view virtual override returns (string memory) {\n    return baseTokenURI;\n  }\n\n  function tokenURI(uint256 _tokenId)\n    public\n    view\n    virtual\n    override\n    returns (string memory)\n  {\n    require(\n      _exists(_tokenId),\n      \"NFT: URI query for nonexistent token\"\n    );\n\n    string memory currentBaseURI = _baseURI();\n    return bytes(currentBaseURI).length > 0\n        ? string(abi.encodePacked(currentBaseURI, _tokenId.toString(), baseExtension))\n        : \"\";\n  }\n\n  function setBaseExtension(string memory _newBaseExtension) external onlyOwner {\n    baseExtension = _newBaseExtension;\n  }\n\n  function pauseSale(bool _pause) external onlyOwner {\n    pause = _pause;\n  }\n\n// Whitelist\n  function setVerifier(address _newVerifier) external onlyOwner {\n    emit VerifierSet(verifier, _newVerifier);\n    verifier = _newVerifier;\n  }\n\n  function withdrawToAddress(address payable _recipient, uint256 _amount) external onlyOwner {\n    if (_amount == type(uint256).max) {\n      _amount = address(this).balance;\n    }\n    (bool success, ) = payable(_recipient).call{value: _amount}(\"\");\n    require(success, \"Transaction failed\");\n    emit Withdraw(_recipient, _amount);\n  }\n\n  function getWhitelistConstant() external pure returns (bytes32) {\n    return DS_IS_WHITELISTED;\n  }\n\n  function _verifyWhitelist(address _account, bytes memory _whitelistedSig)\n        internal view\n    {\n        require(\n            _verifySignature(DS_IS_WHITELISTED, _account, _whitelistedSig),\n            \"Address is not whitelisted\"\n        );\n    }\n\n  function _verifySignature(bytes32 _domainSep, address _account, bytes memory _signature)\n        internal view returns (bool)\n    {\n        return verifier.isValidSignatureNow(\n            keccak256(abi.encode(_domainSep, _account)).toEthSignedMessageHash(),\n            _signature\n        );\n    }\n\n// Royalty\n  function setRoyalties(uint _tokenId, address payable recipient, uint96 _percentageBasisPoints) internal {\n    LibPart.Part[] memory _royalties = new LibPart.Part[](1);\n    _royalties[0].value = _percentageBasisPoints;\n    _royalties[0].account = recipient;\n    _saveRoyalties(_tokenId, _royalties);\n  }\n\n  function royaltyInfo(uint256 _tokenId, uint256 _salePrice) external view returns (address receiver,uint256 royaltyAmount) {\n    LibPart.Part[] memory _royalties = royalties[_tokenId];\n    if (_royalties.length > 0) {\n      // 10000 percentageBasisPoints = 100%\n      return (_royalties[0].account, (_salePrice * _royalties[0].value / 10000));\n    }\n    return (address(0), 0);\n  }\n\n  function supportsInterface(bytes4 _interfaceId) public view virtual override(ERC721) returns (bool) {\n    if (_interfaceId == LibRoyaltiesV2._INTERFACE_ID_ROYALTIES) {\n      return true;\n    }\n\n    if (_interfaceId == _INTERFACE_ID_ERC2981) {\n      return true;\n    }\n\n    return super.supportsInterface(_interfaceId);\n  }\n}\n",
  "sourcePath": "/Users/louishuang/Documents/Beyound-Boundary/contracts/SmartContract.sol",
  "compiler": {
    "name": "solc",
    "version": "0.8.0+commit.c7dfd78e.Emscripten.clang"
  },
  "schemaVersion": "3.4.4",
  "updatedAt": "2022-01-10T03:58:08.763Z",
  "networkType": "ethereum",
  "devdoc": {
    "kind": "dev",
    "methods": {
      "approve(address,uint256)": {
        "details": "See {IERC721-approve}."
      },
      "balanceOf(address)": {
        "details": "See {IERC721-balanceOf}."
      },
      "getApproved(uint256)": {
        "details": "See {IERC721-getApproved}."
      },
      "isApprovedForAll(address,address)": {
        "details": "See {IERC721-isApprovedForAll}."
      },
      "name()": {
        "details": "See {IERC721Metadata-name}."
      },
      "owner()": {
        "details": "Returns the address of the current owner."
      },
      "ownerOf(uint256)": {
        "details": "See {IERC721-ownerOf}."
      },
      "renounceOwnership()": {
        "details": "Leaves the contract without owner. It will not be possible to call `onlyOwner` functions anymore. Can only be called by the current owner. NOTE: Renouncing ownership will leave the contract without an owner, thereby removing any functionality that is only available to the owner."
      },
      "safeTransferFrom(address,address,uint256)": {
        "details": "See {IERC721-safeTransferFrom}."
      },
      "safeTransferFrom(address,address,uint256,bytes)": {
        "details": "See {IERC721-safeTransferFrom}."
      },
      "setApprovalForAll(address,bool)": {
        "details": "See {IERC721-setApprovalForAll}."
      },
      "symbol()": {
        "details": "See {IERC721Metadata-symbol}."
      },
      "transferFrom(address,address,uint256)": {
        "details": "See {IERC721-transferFrom}."
      },
      "transferOwnership(address)": {
        "details": "Transfers ownership of the contract to a new account (`newOwner`). Can only be called by the current owner."
      }
    },
    "version": 1
  },
  "userdoc": {
    "kind": "user",
    "methods": {},
    "version": 1
  }
}